{
  "contractName": "SCAccess",
  "abi": [
    {
      "inputs": [
        {
          "internalType": "contract IBCHandler",
          "name": "ibcHandler_",
          "type": "address"
        }
      ],
      "stateMutability": "nonpayable",
      "type": "constructor"
    },
    {
      "anonymous": false,
      "inputs": [
        {
          "indexed": false,
          "internalType": "address",
          "name": "from",
          "type": "address"
        },
        {
          "indexed": false,
          "internalType": "string[]",
          "name": "certsAddress",
          "type": "string[]"
        },
        {
          "indexed": false,
          "internalType": "address[][][]",
          "name": "accessList",
          "type": "address[][][]"
        }
      ],
      "name": "CertEntites",
      "type": "event"
    },
    {
      "anonymous": false,
      "inputs": [
        {
          "indexed": false,
          "internalType": "bytes32",
          "name": "firmaHashCode",
          "type": "bytes32"
        },
        {
          "indexed": false,
          "internalType": "bytes32",
          "name": "abiFirmaHashCode",
          "type": "bytes32"
        },
        {
          "indexed": false,
          "internalType": "bytes",
          "name": "noncebytes",
          "type": "bytes"
        },
        {
          "indexed": false,
          "internalType": "uint256",
          "name": "nonce",
          "type": "uint256"
        }
      ],
      "name": "EventoCacnea",
      "type": "event"
    },
    {
      "anonymous": false,
      "inputs": [
        {
          "indexed": true,
          "internalType": "address",
          "name": "to",
          "type": "address"
        },
        {
          "indexed": false,
          "internalType": "bytes",
          "name": "message",
          "type": "bytes"
        }
      ],
      "name": "Gavincall",
      "type": "event"
    },
    {
      "anonymous": false,
      "inputs": [
        {
          "indexed": true,
          "internalType": "address",
          "name": "to",
          "type": "address"
        },
        {
          "indexed": false,
          "internalType": "string",
          "name": "message",
          "type": "string"
        }
      ],
      "name": "Mint",
      "type": "event"
    },
    {
      "anonymous": false,
      "inputs": [
        {
          "indexed": true,
          "internalType": "address",
          "name": "entity",
          "type": "address"
        },
        {
          "indexed": false,
          "internalType": "string",
          "name": "certificate",
          "type": "string"
        },
        {
          "indexed": false,
          "internalType": "enum SCAccess.Acceso",
          "name": "access",
          "type": "uint8"
        }
      ],
      "name": "ModifyAccess",
      "type": "event"
    },
    {
      "anonymous": false,
      "inputs": [
        {
          "indexed": false,
          "internalType": "uint256",
          "name": "nonce",
          "type": "uint256"
        }
      ],
      "name": "NonceSign",
      "type": "event"
    },
    {
      "anonymous": false,
      "inputs": [
        {
          "indexed": true,
          "internalType": "address",
          "name": "from",
          "type": "address"
        },
        {
          "indexed": true,
          "internalType": "address",
          "name": "to",
          "type": "address"
        },
        {
          "indexed": false,
          "internalType": "string",
          "name": "sourcePort",
          "type": "string"
        },
        {
          "indexed": false,
          "internalType": "string",
          "name": "sourceChannel",
          "type": "string"
        },
        {
          "indexed": false,
          "internalType": "uint64",
          "name": "timeoutHeight",
          "type": "uint64"
        },
        {
          "indexed": false,
          "internalType": "string",
          "name": "message",
          "type": "string"
        }
      ],
      "name": "SendTransfer",
      "type": "event"
    },
    {
      "anonymous": false,
      "inputs": [
        {
          "indexed": true,
          "internalType": "address",
          "name": "from",
          "type": "address"
        },
        {
          "indexed": true,
          "internalType": "address",
          "name": "to",
          "type": "address"
        },
        {
          "indexed": false,
          "internalType": "string",
          "name": "message",
          "type": "string"
        }
      ],
      "name": "Transfer",
      "type": "event"
    },
    {
      "anonymous": false,
      "inputs": [
        {
          "indexed": false,
          "internalType": "address",
          "name": "from",
          "type": "address"
        },
        {
          "indexed": false,
          "internalType": "string",
          "name": "result",
          "type": "string"
        }
      ],
      "name": "UserAccess",
      "type": "event"
    },
    {
      "inputs": [
        {
          "internalType": "string",
          "name": "",
          "type": "string"
        },
        {
          "internalType": "address",
          "name": "",
          "type": "address"
        }
      ],
      "name": "access",
      "outputs": [
        {
          "internalType": "enum SCAccess.Acceso",
          "name": "",
          "type": "uint8"
        }
      ],
      "stateMutability": "view",
      "type": "function"
    },
    {
      "inputs": [
        {
          "internalType": "address",
          "name": "",
          "type": "address"
        },
        {
          "internalType": "address",
          "name": "",
          "type": "address"
        }
      ],
      "name": "accesslist",
      "outputs": [
        {
          "internalType": "enum SCAccess.Acceso",
          "name": "",
          "type": "uint8"
        }
      ],
      "stateMutability": "view",
      "type": "function"
    },
    {
      "inputs": [
        {
          "internalType": "address",
          "name": "",
          "type": "address"
        },
        {
          "internalType": "string",
          "name": "",
          "type": "string"
        },
        {
          "internalType": "enum SCAccess.Acceso",
          "name": "",
          "type": "uint8"
        },
        {
          "internalType": "uint256",
          "name": "",
          "type": "uint256"
        }
      ],
      "name": "accesslista",
      "outputs": [
        {
          "internalType": "address",
          "name": "",
          "type": "address"
        }
      ],
      "stateMutability": "view",
      "type": "function"
    },
    {
      "inputs": [
        {
          "internalType": "uint256",
          "name": "",
          "type": "uint256"
        },
        {
          "internalType": "uint256",
          "name": "",
          "type": "uint256"
        },
        {
          "internalType": "uint256",
          "name": "",
          "type": "uint256"
        }
      ],
      "name": "entidades",
      "outputs": [
        {
          "internalType": "address",
          "name": "",
          "type": "address"
        }
      ],
      "stateMutability": "view",
      "type": "function"
    },
    {
      "inputs": [
        {
          "internalType": "uint256",
          "name": "",
          "type": "uint256"
        },
        {
          "internalType": "uint256",
          "name": "",
          "type": "uint256"
        }
      ],
      "name": "entidades1cert",
      "outputs": [
        {
          "internalType": "address",
          "name": "",
          "type": "address"
        }
      ],
      "stateMutability": "view",
      "type": "function"
    },
    {
      "inputs": [
        {
          "internalType": "address",
          "name": "",
          "type": "address"
        },
        {
          "internalType": "uint256",
          "name": "",
          "type": "uint256"
        }
      ],
      "name": "holdersEspejo",
      "outputs": [
        {
          "internalType": "string",
          "name": "",
          "type": "string"
        }
      ],
      "stateMutability": "view",
      "type": "function"
    },
    {
      "inputs": [
        {
          "internalType": "address",
          "name": "",
          "type": "address"
        },
        {
          "internalType": "uint256",
          "name": "",
          "type": "uint256"
        },
        {
          "internalType": "uint256",
          "name": "",
          "type": "uint256"
        },
        {
          "internalType": "uint256",
          "name": "",
          "type": "uint256"
        }
      ],
      "name": "userEntidades",
      "outputs": [
        {
          "internalType": "address",
          "name": "",
          "type": "address"
        }
      ],
      "stateMutability": "view",
      "type": "function"
    },
    {
      "inputs": [
        {
          "internalType": "address",
          "name": "user",
          "type": "address"
        }
      ],
      "name": "getNonce",
      "outputs": [
        {
          "internalType": "uint256",
          "name": "",
          "type": "uint256"
        }
      ],
      "stateMutability": "view",
      "type": "function"
    },
    {
      "inputs": [
        {
          "internalType": "address",
          "name": "holder",
          "type": "address"
        }
      ],
      "name": "getAccessList",
      "outputs": [],
      "stateMutability": "nonpayable",
      "type": "function"
    },
    {
      "inputs": [
        {
          "internalType": "address",
          "name": "holder",
          "type": "address"
        },
        {
          "components": [
            {
              "internalType": "bytes32",
              "name": "_hashCodeCert",
              "type": "bytes32"
            },
            {
              "internalType": "bytes32",
              "name": "_r",
              "type": "bytes32"
            },
            {
              "internalType": "bytes32",
              "name": "_s",
              "type": "bytes32"
            },
            {
              "internalType": "uint8",
              "name": "_v",
              "type": "uint8"
            }
          ],
          "internalType": "struct SCAccess.FirmaValidacion",
          "name": "firma",
          "type": "tuple"
        }
      ],
      "name": "getEntidades",
      "outputs": [
        {
          "internalType": "address[][][]",
          "name": "",
          "type": "address[][][]"
        }
      ],
      "stateMutability": "nonpayable",
      "type": "function"
    },
    {
      "inputs": [
        {
          "internalType": "address",
          "name": "entity",
          "type": "address"
        },
        {
          "internalType": "string",
          "name": "certificate",
          "type": "string"
        },
        {
          "components": [
            {
              "internalType": "bytes32",
              "name": "_hashCodeCert",
              "type": "bytes32"
            },
            {
              "internalType": "bytes32",
              "name": "_r",
              "type": "bytes32"
            },
            {
              "internalType": "bytes32",
              "name": "_s",
              "type": "bytes32"
            },
            {
              "internalType": "uint8",
              "name": "_v",
              "type": "uint8"
            }
          ],
          "internalType": "struct SCAccess.FirmaValidacion",
          "name": "firma",
          "type": "tuple"
        },
        {
          "internalType": "enum SCAccess.Acceso",
          "name": "accessvalue",
          "type": "uint8"
        }
      ],
      "name": "modifyAccess",
      "outputs": [],
      "stateMutability": "nonpayable",
      "type": "function"
    },
    {
      "inputs": [
        {
          "internalType": "string",
          "name": "message",
          "type": "string"
        },
        {
          "internalType": "address",
          "name": "receiver",
          "type": "address"
        },
        {
          "components": [
            {
              "internalType": "string",
              "name": "sourcePort",
              "type": "string"
            },
            {
              "internalType": "string",
              "name": "sourceChannel",
              "type": "string"
            },
            {
              "internalType": "uint64",
              "name": "timeoutHeight",
              "type": "uint64"
            }
          ],
          "internalType": "struct SCAccess.RelayerParams",
          "name": "param",
          "type": "tuple"
        },
        {
          "components": [
            {
              "internalType": "bytes32",
              "name": "_hashCodeCert",
              "type": "bytes32"
            },
            {
              "internalType": "bytes32",
              "name": "_r",
              "type": "bytes32"
            },
            {
              "internalType": "bytes32",
              "name": "_s",
              "type": "bytes32"
            },
            {
              "internalType": "uint8",
              "name": "_v",
              "type": "uint8"
            }
          ],
          "internalType": "struct SCAccess.FirmaValidacion",
          "name": "firma",
          "type": "tuple"
        }
      ],
      "name": "sendTransfer",
      "outputs": [],
      "stateMutability": "nonpayable",
      "type": "function"
    },
    {
      "inputs": [
        {
          "internalType": "address",
          "name": "account",
          "type": "address"
        },
        {
          "internalType": "string",
          "name": "message",
          "type": "string"
        }
      ],
      "name": "mint",
      "outputs": [],
      "stateMutability": "nonpayable",
      "type": "function"
    },
    {
      "inputs": [
        {
          "internalType": "address",
          "name": "to",
          "type": "address"
        },
        {
          "internalType": "string",
          "name": "message",
          "type": "string"
        }
      ],
      "name": "transfer",
      "outputs": [],
      "stateMutability": "nonpayable",
      "type": "function"
    },
    {
      "inputs": [
        {
          "internalType": "address",
          "name": "account",
          "type": "address"
        }
      ],
      "name": "balanceOf",
      "outputs": [
        {
          "internalType": "string",
          "name": "",
          "type": "string"
        }
      ],
      "stateMutability": "view",
      "type": "function"
    },
    {
      "inputs": [
        {
          "components": [
            {
              "internalType": "uint64",
              "name": "sequence",
              "type": "uint64"
            },
            {
              "internalType": "string",
              "name": "source_port",
              "type": "string"
            },
            {
              "internalType": "string",
              "name": "source_channel",
              "type": "string"
            },
            {
              "internalType": "string",
              "name": "destination_port",
              "type": "string"
            },
            {
              "internalType": "string",
              "name": "destination_channel",
              "type": "string"
            },
            {
              "internalType": "bytes",
              "name": "data",
              "type": "bytes"
            },
            {
              "components": [
                {
                  "internalType": "uint64",
                  "name": "revision_number",
                  "type": "uint64"
                },
                {
                  "internalType": "uint64",
                  "name": "revision_height",
                  "type": "uint64"
                }
              ],
              "internalType": "struct Height.Data",
              "name": "timeout_height",
              "type": "tuple"
            },
            {
              "internalType": "uint64",
              "name": "timeout_timestamp",
              "type": "uint64"
            }
          ],
          "internalType": "struct Packet.Data",
          "name": "packet",
          "type": "tuple"
        },
        {
          "internalType": "address",
          "name": "relayer",
          "type": "address"
        }
      ],
      "name": "onRecvPacket",
      "outputs": [
        {
          "internalType": "bytes",
          "name": "acknowledgement",
          "type": "bytes"
        }
      ],
      "stateMutability": "nonpayable",
      "type": "function"
    },
    {
      "inputs": [
        {
          "components": [
            {
              "internalType": "uint64",
              "name": "sequence",
              "type": "uint64"
            },
            {
              "internalType": "string",
              "name": "source_port",
              "type": "string"
            },
            {
              "internalType": "string",
              "name": "source_channel",
              "type": "string"
            },
            {
              "internalType": "string",
              "name": "destination_port",
              "type": "string"
            },
            {
              "internalType": "string",
              "name": "destination_channel",
              "type": "string"
            },
            {
              "internalType": "bytes",
              "name": "data",
              "type": "bytes"
            },
            {
              "components": [
                {
                  "internalType": "uint64",
                  "name": "revision_number",
                  "type": "uint64"
                },
                {
                  "internalType": "uint64",
                  "name": "revision_height",
                  "type": "uint64"
                }
              ],
              "internalType": "struct Height.Data",
              "name": "timeout_height",
              "type": "tuple"
            },
            {
              "internalType": "uint64",
              "name": "timeout_timestamp",
              "type": "uint64"
            }
          ],
          "internalType": "struct Packet.Data",
          "name": "packet",
          "type": "tuple"
        },
        {
          "internalType": "bytes",
          "name": "acknowledgement",
          "type": "bytes"
        },
        {
          "internalType": "address",
          "name": "relayer",
          "type": "address"
        }
      ],
      "name": "onAcknowledgementPacket",
      "outputs": [],
      "stateMutability": "nonpayable",
      "type": "function"
    },
    {
      "inputs": [
        {
          "internalType": "enum Channel.Order",
          "name": "",
          "type": "uint8"
        },
        {
          "internalType": "string[]",
          "name": "connectionHops",
          "type": "string[]"
        },
        {
          "internalType": "string",
          "name": "portId",
          "type": "string"
        },
        {
          "internalType": "string",
          "name": "channelId",
          "type": "string"
        },
        {
          "components": [
            {
              "internalType": "string",
              "name": "port_id",
              "type": "string"
            },
            {
              "internalType": "string",
              "name": "channel_id",
              "type": "string"
            }
          ],
          "internalType": "struct ChannelCounterparty.Data",
          "name": "counterparty",
          "type": "tuple"
        },
        {
          "internalType": "string",
          "name": "version",
          "type": "string"
        }
      ],
      "name": "onChanOpenInit",
      "outputs": [],
      "stateMutability": "nonpayable",
      "type": "function"
    },
    {
      "inputs": [
        {
          "internalType": "enum Channel.Order",
          "name": "",
          "type": "uint8"
        },
        {
          "internalType": "string[]",
          "name": "connectionHops",
          "type": "string[]"
        },
        {
          "internalType": "string",
          "name": "portId",
          "type": "string"
        },
        {
          "internalType": "string",
          "name": "channelId",
          "type": "string"
        },
        {
          "components": [
            {
              "internalType": "string",
              "name": "port_id",
              "type": "string"
            },
            {
              "internalType": "string",
              "name": "channel_id",
              "type": "string"
            }
          ],
          "internalType": "struct ChannelCounterparty.Data",
          "name": "counterparty",
          "type": "tuple"
        },
        {
          "internalType": "string",
          "name": "version",
          "type": "string"
        },
        {
          "internalType": "string",
          "name": "counterpartyVersion",
          "type": "string"
        }
      ],
      "name": "onChanOpenTry",
      "outputs": [],
      "stateMutability": "nonpayable",
      "type": "function"
    },
    {
      "inputs": [
        {
          "internalType": "string",
          "name": "portId",
          "type": "string"
        },
        {
          "internalType": "string",
          "name": "channelId",
          "type": "string"
        },
        {
          "internalType": "string",
          "name": "counterpartyVersion",
          "type": "string"
        }
      ],
      "name": "onChanOpenAck",
      "outputs": [],
      "stateMutability": "nonpayable",
      "type": "function"
    },
    {
      "inputs": [
        {
          "internalType": "string",
          "name": "portId",
          "type": "string"
        },
        {
          "internalType": "string",
          "name": "channelId",
          "type": "string"
        }
      ],
      "name": "onChanOpenConfirm",
      "outputs": [],
      "stateMutability": "nonpayable",
      "type": "function"
    },
    {
      "inputs": [
        {
          "internalType": "string",
          "name": "portId",
          "type": "string"
        },
        {
          "internalType": "string",
          "name": "channelId",
          "type": "string"
        }
      ],
      "name": "onChanCloseConfirm",
      "outputs": [],
      "stateMutability": "nonpayable",
      "type": "function"
    },
    {
      "inputs": [
        {
          "internalType": "string",
          "name": "portId",
          "type": "string"
        },
        {
          "internalType": "string",
          "name": "channelId",
          "type": "string"
        }
      ],
      "name": "onChanCloseInit",
      "outputs": [],
      "stateMutability": "nonpayable",
      "type": "function"
    }
  ],
  "bytecode": "0x60806040523480156200001157600080fd5b5060405162004fdd38038062004fdd8339810160408190526200003491620009eb565b600180546001600160a01b03199081163317909155600080546001600160a01b038416921691909117905560405160008051602062004e3783398151915290600490620000b39060008051602062004fbd833981519152815260008051602062004e17833981519152602082015261306560f01b604082015260420190565b908152602001604051809103902060006101000a8154816001600160a01b0302191690836001600160a01b0316021790555073a89f47c6b463f74d87572b058427da0a13ec542560046040516200013c9060008051602062004ef9833981519152815260008051602062004eb9833981519152602082015261316560f01b604082015260420190565b908152602001604051809103902060006101000a8154816001600160a01b0302191690836001600160a01b0316021790555073f7e8f12cc45a0798802d57378449d9d8a3bacd576004604051620001c59060008051602062004f19833981519152815260008051602062004ed983398151915260208201526131b160f11b604082015260420190565b908152602001604051809103902060006101000a8154816001600160a01b0302191690836001600160a01b03160217905550604051806020016040528060405180608001604052806042815260200162004e7760429139905260008051602062004e37833981519152600052600560205262000265907f9eca7466ce0dee3a0bb05ca9bdc1f314811410a2050bbcdf778c2d5c677f17089060016200082a565b50604051806020016040528060405180608001604052806042815260200162004f3960429139905273a89f47c6b463f74d87572b058427da0a13ec54256000526005602052620002d9907f2703ce4f79659367dcd252315c3c75d3cf7e1b744e79a321f0602a6428a8cdad9060016200082a565b50604051806020016040528060405180608001604052806042815260200162004f7b60429139905273f7e8f12cc45a0798802d57378449d9d8a3bacd5760005260056020526200034d907f3f9f8449075c43a6d764258d4acf76433a836d5f727d83f6bda10fc15ec693239060016200082a565b5060016006604051620003929060008051602062004fbd833981519152815260008051602062004e17833981519152602082015261306560f01b604082015260420190565b908152604080516020928190038301902060008051602062004e37833981519152600090815292529020805460ff19166001836004811115620003d957620003d962000a1d565b021790555060016006604051620004229060008051602062004ef9833981519152815260008051602062004eb9833981519152602082015261316560f01b604082015260420190565b908152604080516020928190038301902060008051602062004e37833981519152600090815292529020805460ff1916600183600481111562000469576200046962000a1d565b021790555060016006604051620004b29060008051602062004f19833981519152815260008051602062004ed983398151915260208201526131b160f11b604082015260420190565b908152604080516020928190038301902073f7e8f12cc45a0798802d57378449d9d8a3bacd57600090815292529020805460ff19166001836004811115620004fe57620004fe62000a1d565b021790555060408051808201825260008051602062004e3783398151915280825273a89f47c6b463f74d87572b058427da0a13ec5425602080840191909152600091909152600a9052905160008051602062004e5783398151915290620005979060008051602062004fbd833981519152815260008051602062004e17833981519152602082015261306560f01b604082015260420190565b90815260408051602092819003830190206001600090815292529020620005c09160026200088e565b506040805180820182527395222290dd7278aa3ddd389cc1e1d165cc4bafe5815273478d97356251bf1f1e744587e67207dab100cadb60208083019190915260008051602062004e37833981519152600052600a9052905160008051602062004e5783398151915290620006669060008051602062004fbd833981519152815260008051602062004e17833981519152602082015261306560f01b604082015260420190565b9081526040805160209281900383019020600260008181529190935220620006909290916200088e565b5060408051808201825260008051602062004e37833981519152808252734838b106fce9647bdf1e7877bf73ce8b0bad5f97602080840191909152600091909152600a9052905160008051602062004e5783398151915290620007259060008051602062004ef9833981519152815260008051602062004eb9833981519152602082015261316560f01b604082015260420190565b908152604080516020928190038301902060016000908152925290206200074e9160026200088e565b5060408051808201825273f7e8f12cc45a0798802d57378449d9d8a3bacd5780825273333343333ce9647bdf1e7877bf73ce8b0bad5f97602080840191909152600091909152600a905290517f35ebbf7648b3410c16ea9c6823c28277a70e328357e2e4042339b31fe785547590620007f99060008051602062004f19833981519152815260008051602062004ed983398151915260208201526131b160f11b604082015260420190565b90815260408051602092819003830190206001600090815292529020620008229160026200088e565b505062000a70565b8280548282559060005260206000209081019282156200087c579160200282015b828111156200087c57825180516200086b918491602090910190620008f4565b50916020019190600101906200084b565b506200088a92915062000971565b5090565b828054828255906000526020600020908101928215620008e6579160200282015b82811115620008e657825182546001600160a01b0319166001600160a01b03909116178255602090920191600190910190620008af565b506200088a92915062000992565b828054620009029062000a33565b90600052602060002090601f016020900481019282620009265760008555620008e6565b82601f106200094157805160ff1916838001178555620008e6565b82800160010185558215620008e6579182015b82811115620008e657825182559160200191906001019062000954565b808211156200088a576000620009888282620009a9565b5060010162000971565b5b808211156200088a576000815560010162000993565b508054620009b79062000a33565b6000825580601f10620009c8575050565b601f016020900490600052602060002090810190620009e8919062000992565b50565b600060208284031215620009fe57600080fd5b81516001600160a01b038116811462000a1657600080fd5b9392505050565b634e487b7160e01b600052602160045260246000fd5b600181811c9082168062000a4857607f821691505b6020821081141562000a6a57634e487b7160e01b600052602260045260246000fd5b50919050565b6143978062000a806000396000f3fe608060405234801561001057600080fd5b506004361061018d5760003560e01c80638904459b116100e3578063caf7a72c1161008c578063ed2ab7e011610066578063ed2ab7e0146103c3578063ef4776d214610363578063fb8b532e146103d657600080fd5b8063caf7a72c1461039d578063d0def521146103b0578063e74a1ac21461036357600080fd5b8063a113e411116100bd578063a113e41114610363578063bacefad814610377578063c1c974af1461038a57600080fd5b80638904459b146102f6578063981389f2146103095780639b913c3e1461032557600080fd5b806344dd96381161014557806363bfea6c1161011f57806363bfea6c146102b057806370a08231146102d057806380efcb3c146102e357600080fd5b806344dd9638146102555780634942d1ac1461026f5780635fb0d35e1461028557600080fd5b80632d0335ab116101765780632d0335ab146101d05780633f90c8291461020757806343c8cfc81461021a57600080fd5b806309886649146101925780632301c6f5146101a7575b600080fd5b6101a56101a0366004612f2f565b6103e9565b005b6101ba6101b5366004612f98565b61042c565b6040516101c79190613042565b60405180910390f35b6101f96101de366004613055565b6001600160a01b031660009081526008602052604090205490565b6040519081526020016101c7565b6101ba610215366004613072565b610549565b61024861022836600461309e565b600960209081526000928352604080842090915290825290205460ff1681565b6040516101c79190613104565b6101a56102633660046131c8565b50505050505050505050565b6101a561027d3660046132c4565b505050505050565b61029861029336600461336b565b610602565b6040516001600160a01b0390911681526020016101c7565b6102c36102be3660046133e7565b61065d565b6040516101c7919061341d565b6101ba6102de366004613055565b6108e8565b6101a56102f1366004613055565b610994565b6102986103043660046134f0565b610bef565b6101a561031736600461352b565b505050505050505050505050565b61024861033336600461367c565b81516020818401810180516006825292820194820194909420919093529091526000908152604090205460ff1681565b6101a56103713660046136b2565b50505050565b61029861038536600461371e565b610c3b565b6101a561039836600461374a565b610c98565b6102986103ab3660046137be565b61112f565b6101a56103be366004612f2f565b611173565b6101a56103d13660046137e0565b611209565b6101a56103e436600461386f565b6116a7565b600060606103f833858561176e565b909250905080826104255760405162461bcd60e51b815260040161041c9190613042565b60405180910390fd5b5050505050565b6000546060906001600160a01b0316331461049b5760405162461bcd60e51b815260206004820152602960248201527f4d696e694d6573736167653a2063616c6c6572206973206e6f742074686520696044820152683131a430b7323632b960b91b606482015260840161041c565b60006104e76104ad60a08601866138e0565b8080601f0160208091040260200160405190810160405280939291908181526020018383808284376000920191909152506118c292505050565b90506000610503600083604001516118fd90919063ffffffff16565b8251604051610516929190602001613927565b6040516020818303038152906040529050600061053282611973565b905061053d81611d5b565b93505050505b92915050565b6005602052816000526040600020818154811061056557600080fd5b9060005260206000200160009150915050805461058190613949565b80601f01602080910402602001604051908101604052809291908181526020018280546105ad90613949565b80156105fa5780601f106105cf576101008083540402835291602001916105fa565b820191906000526020600020905b8154815290600101906020018083116105dd57829003601f168201915b505050505081565b600a602090815260008581526040808220865180880185018051928152908501888601209190529092528381522080548290811061063f57600080fd5b6000918252602090912001546001600160a01b031693508492505050565b606060006106786106733685900385018561397e565b611def565b6001600160a01b03811660009081526008602052604090205490915061069d90611ed4565b6040516020016106ad91906139f0565b604051602081830303815290604052805190602001208360000135146107065760405162461bcd60e51b815260206004820152600e60248201526d24b73b30b634b21039b4b3b732b960911b604482015260640161041c565b806001600160a01b0316846001600160a01b03161461078d5760405162461bcd60e51b815260206004820152603560248201527f496e76616c6964207369676e65722e204d7367207369676e6572206973206e6f60448201527f74207468652075736572207265717565737465642e0000000000000000000000606482015260840161041c565b6001600160a01b0384166000908152600560209081526040808320600b9092529182902091517fc1c4eb77e74f76739e84409cba793b1efc732b3caf2768d20b767dbb7e71f817926107e3928892909190613a83565b60405180910390a16001600160a01b0384166000908152600b6020908152604080832080548251818502810185019093528083529193909284015b828210156108db57838290600052602060002001805480602002602001604051908101604052809291908181526020016000905b828210156108c8576000848152602090819020830180546040805182850281018501909152818152928301828280156108b457602002820191906000526020600020905b81546001600160a01b03168152600190910190602001808311610896575b505050505081526020019060010190610852565b505050508152602001906001019061081e565b5050505091505092915050565b6001600160a01b038116600090815260076020526040902080546060919061090f90613949565b80601f016020809104026020016040519081016040528092919081815260200182805461093b90613949565b80156109885780601f1061095d57610100808354040283529160200191610988565b820191906000526020600020905b81548152906001019060200180831161096b57829003601f168201915b50505050509050919050565b6001600160a01b0381166000908152600560205260408120906109b990600390612b6e565b6109c560026000612b8c565b6040805160808101825260018152600260208201526003918101919091526004606082015260005b8254811015610bc75760005b6004811015610b66576000838260048110610a1657610a16613be1565b602002015190506000600a6000886001600160a01b03166001600160a01b03168152602001908152602001600020868581548110610a5657610a56613be1565b90600052602060002001604051610a6d9190613bf7565b90815260200160405180910390206000836004811115610a8f57610a8f6130cc565b6004811115610aa057610aa06130cc565b8152602001908152602001600020805480602002602001604051908101604052809291908181526020018280548015610b0257602002820191906000526020600020905b81546001600160a01b03168152600190910190602001808311610ae4575b5050600280546001810182556000919091528451949550610b50947f405787fa12a823e0f2b7631cc41b3ba8828b3321ca811111fa75cd3aa3bb5ace90910193506020860192509050612baa565b5050508080610b5e90613c7f565b9150506109f9565b506003805460018101825560009190915260028054610ba8927fc2575a0e9e593c00f959f8c92f12db2869c3395a3b0502d05e2516446f71f85b019190612c0f565b50610bb560026000612b8c565b80610bbf81613c7f565b9150506109ed565b506001600160a01b0383166000908152600b6020526040902060038054610371929190612c67565b600b6020528360005260406000208381548110610c0b57600080fd5b906000526020600020018281548110610c2357600080fd5b90600052602060002001818154811061063f57600080fd5b60038381548110610c4b57600080fd5b906000526020600020018281548110610c6357600080fd5b906000526020600020018181548110610c7b57600080fd5b6000918252602090912001546001600160a01b0316925083915050565b6000610cac6106733685900385018561397e565b6001600160a01b038116600090815260086020526040902054909150610cd190611ed4565b604051602001610ce191906139f0565b60405160208183030381529060405280519060200120836000013514610d3a5760405162461bcd60e51b815260206004820152600e60248201526d24b73b30b634b21039b4b3b732b960911b604482015260640161041c565b806001600160a01b0316600485604051610d5491906139f0565b908152604051908190036020019020546001600160a01b031614610dba5760405162461bcd60e51b815260206004820152601060248201527f496e76616c6964207369676e6572203200000000000000000000000000000000604482015260640161041c565b6001600160a01b038116600090815260086020526040902054610dde906001613c9a565b6001600160a01b0382166000908152600860205260409081902091909155518290600690610e0d9087906139f0565b90815260408051602092819003830190206001600160a01b038916600090815292529020805460ff19166001836004811115610e4b57610e4b6130cc565b02179055506040805160808101825260018152600260208201526003918101919091526004606082015260005b6004811015611051576000828260048110610e9557610e95613be1565b602002015190506000600a6000866001600160a01b03166001600160a01b0316815260200190815260200160002088604051610ed191906139f0565b90815260200160405180910390206000836004811115610ef357610ef36130cc565b6004811115610f0457610f046130cc565b8152602001908152602001600020905060005b815481101561103b57896001600160a01b0316828281548110610f3c57610f3c613be1565b6000918252602090912001546001600160a01b0316141561102957805b8254610f6790600190613cb2565b811015610ff55782610f7a826001613c9a565b81548110610f8a57610f8a613be1565b9060005260206000200160009054906101000a90046001600160a01b0316838281548110610fba57610fba613be1565b600091825260209091200180546001600160a01b0319166001600160a01b039290921691909117905580610fed81613c7f565b915050610f59565b508180548061100657611006613cc9565b600082815260209020810160001990810180546001600160a01b03191690550190555b8061103381613c7f565b915050610f17565b505050808061104990613c7f565b915050610e78565b506001600160a01b0382166000908152600a60205260409081902090516110799087906139f0565b9081526020016040518091039020600084600481111561109b5761109b6130cc565b60048111156110ac576110ac6130cc565b815260208082019290925260409081016000908120805460018101825590825292902090910180546001600160a01b0319166001600160a01b03891690811790915590517fe7c1195f4e3760da3f33ffa27eed09a0d23751fa13eb78ba5cb21268b3affc2c9061111f9088908790613cdf565b60405180910390a2505050505050565b6002828154811061113f57600080fd5b90600052602060002001818154811061115757600080fd5b6000918252602090912001546001600160a01b03169150829050565b6001546001600160a01b031633146111f25760405162461bcd60e51b8152602060048201526024808201527f4d696e694d6573736167653a2063616c6c6572206973206e6f7420746865206f60448201527f776e657200000000000000000000000000000000000000000000000000000000606482015260840161041c565b6111fc8282611f76565b61120557600080fd5b5050565b600061121d6106733684900384018461397e565b6001600160a01b03811660009081526008602052604090205490915061124290611ed4565b60405160200161125291906139f0565b604051602081830303815290604052805190602001208260000135146112ab5760405162461bcd60e51b815260206004820152600e60248201526d24b73b30b634b21039b4b3b732b960911b604482015260640161041c565b6001600160a01b0381166000908152600860205260409020546112cf906001613c9a565b6001600160a01b03821660009081526008602052604090205560016006866040516112fa91906139f0565b90815260408051602092819003830190206001600160a01b0385166000908152925290205460ff166004811115611333576113336130cc565b14806113875750600260068660405161134c91906139f0565b90815260408051602092819003830190206001600160a01b0385166000908152925290205460ff166004811115611385576113856130cc565b145b806113da5750600360068660405161139f91906139f0565b90815260408051602092819003830190206001600160a01b0385166000908152925290205460ff1660048111156113d8576113d86130cc565b145b806114155750806001600160a01b03166004866040516113fa91906139f0565b908152604051908190036020019020546001600160a01b0316145b156116045761153c604051806060016040528087815260200183604051602001611457919060609190911b6bffffffffffffffffffffffff1916815260140190565b604051602081830303815290604052815260200186604051602001611494919060609190911b6bffffffffffffffffffffffff1916815260140190565b60408051601f1981840301815291905290526114b085806138e0565b8080601f0160208091040260200160405190810160405280939291908181526020018383808284376000920191909152506114f29250505060208701876138e0565b8080601f016020809104026020016040519081016040528093929190818152602001838380828437600092019190915250611537925050506060880160408901613d17565b611fe9565b6001600160a01b038085169082167f7e5107b5aa7d076345d5537a58bff0f39e794fb26326d904f3f5cfe7c4883b2461157586806138e0565b61158260208901896138e0565b61159260608b0160408c01613d17565b8c6040516115a596959493929190613d5d565b60405180910390a3604080518082018252601681527f52455452494556494e4720434552544946494341544500000000000000000000602080830191825233600090815260079091529290922090516115fe9290612cbf565b50611657565b604080518082018252601a81527f4e4f2041434345535320544f2043455254494649434154494f4e000000000000602080830191825233600090815260079091529290922090516116559290612cbf565b505b336000908152600760205260409081902090517fd6739f8734ced3554ea69a3db33b59d96a8e5ba3a7a1aac810b8def67e95ae379161169891849190613db5565b60405180910390a15050505050565b6000546001600160a01b031633146117135760405162461bcd60e51b815260206004820152602960248201527f4d696e694d6573736167653a2063616c6c6572206973206e6f742074686520696044820152683131a430b7323632b960b91b606482015260840161041c565b61175283838080601f01602080910402602001604051908101604052809392919081815260200183838082843760009201919091525061224d92505050565b610371576103716117696104ad60a08701876138e0565b6122c0565b600060608260405160200161178391906139f0565b60408051601f1981840301815282825280516020918201206001600160a01b0389166000908152600783529290922091926117bf929101613bf7565b60405160208183030381529060405280519060200120146117fe57600060405180606001604052806021815260200161434160219139915091506118ba565b60408051602080820180845260008084526001600160a01b038a1681526007909252929020905161182f9290612cbf565b506001600160a01b0384166000908152600760209081526040909120845161185992860190612cbf565b50836001600160a01b0316856001600160a01b03167f55e10366a5f552746106978b694d7ef3bbddec06bd5f9b9d15ad46f475c653ef8560405161189d9190613042565b60405180910390a350506040805160208101909152600081526001905b935093915050565b6118e660405180606001604052806060815260200160608152602001606081525090565b60006118f560208485516122e7565b509392505050565b600061190a826014613c9a565b8351101561195a5760405162461bcd60e51b815260206004820152601560248201527f746f416464726573735f6f75744f66426f756e64730000000000000000000000604482015260640161041c565b5001602001516c01000000000000000000000000900490565b60008060008380602001905181019061198c9190613e07565b805191935091508190819081906000906119a8576119a8613be1565b6020910101517fff00000000000000000000000000000000000000000000000000000000000000167f50000000000000000000000000000000000000000000000000000000000000001415611c1557600060018251611a079190613cb2565b67ffffffffffffffff811115611a1f57611a1f612e41565b6040519080825280601f01601f191660200182016040528015611a49576020820181803683370190505b50905060015b8251811015611ad657828181518110611a6a57611a6a613be1565b01602001517fff000000000000000000000000000000000000000000000000000000000000001682611a9d600184613cb2565b81518110611aad57611aad613be1565b60200101906001600160f81b031916908160001a90535080611ace81613c7f565b915050611a4f565b50600081905085600482604051611aed91906139f0565b908152604080516020928190038301902080546001600160a01b0319166001600160a01b039485161790559188166000908152600582529182208054600181018255908352918190208351611b49939190910191840190612cbf565b506001600682604051611b5c91906139f0565b90815260408051602092819003830190206001600160a01b038a16600090815292529020805460ff19166001836004811115611b9a57611b9a6130cc565b02179055506001600160a01b0386166000908152600a6020526040908190209051611bc69083906139f0565b908152604080516020928190038301902060016000818152918452918120805492830181558152919091200180546001600160a01b0388166001600160a01b031990911617905550611d0e9050565b6040517f4641494c4544000000000000000000000000000000000000000000000000000060208201526026016040516020818303038152906040528051906020012082604051602001611c6891906139f0565b6040516020818303038152906040528051906020012014611cb2576001600160a01b03841660009081526007602090815260409091208351611cac92850190612cbf565b50611d0e565b604080518082018252601281527f5065726d697373696f6e203d2046616c7365000000000000000000000000000060208083019182526001600160a01b03881660009081526007909152929092209051611d0c9290612cbf565b505b836001600160a01b03167fd7660d7568b94c0a40f4ce3c7deed5f4104e118d319d68d32cad215870fd05ce84604051611d479190613042565b60405180910390a250600195945050505050565b604080516001808252818301909252606091600091906020820181803683370190505090508215611dba57600160f81b81600081518110611d9e57611d9e613be1565b60200101906001600160f81b031916908160001a905350610543565b600060f81b81600081518110611dd257611dd2613be1565b60200101906001600160f81b031916908160001a90535092915050565b604080518082018252601c81527f19457468657265756d205369676e6564204d6573736167653a0a333200000000602080830191909152835192516000938492611e3c9285929101613e62565b604051602081830303815290604052805190602001209050600060018286606001518760200151886040015160405160008152602001604052604051611e9e949392919093845260ff9290921660208401526040830152606082015260800190565b6020604051602081039080840390855afa158015611ec0573d6000803e3d6000fd5b5050604051601f1901519695505050505050565b60606000611ee1836123cf565b600101905060008167ffffffffffffffff811115611f0157611f01612e41565b6040519080825280601f01601f191660200182016040528015611f2b576020820181803683370190505b5090508181016020015b600019017f3031323334353637383961626364656600000000000000000000000000000000600a86061a8153600a8504945084611f71576118f5565b611f35565b6001600160a01b038216600090815260076020908152604082208351611f9e92850190612cbf565b50826001600160a01b03167f4c2f6dd3c99d950ddda88131093e3e393b8e548551839aa501d799a7e94c2a1483604051611fd89190613042565b60405180910390a250600192915050565b600080546040517f3000217a00000000000000000000000000000000000000000000000000000000815282916001600160a01b031690633000217a906120359088908890600401613e84565b60006040518083038186803b15801561204d57600080fd5b505afa158015612061573d6000803e3d6000fd5b505050506040513d6000823e601f3d908101601f191682016040526120899190810190614021565b91509150806120da5760405162461bcd60e51b815260206004820152601e60248201527f4d696e694d6573736167653a206368616e6e656c206e6f7420666f756e640000604482015260640161041c565b600054604080516101008101918290527f582418b6000000000000000000000000000000000000000000000000000000009091526001600160a01b03909116906340835e4490808363582418b66121368b8b6101048601613e84565b60206040518083038186803b15801561214e57600080fd5b505afa158015612162573d6000803e3d6000fd5b505050506040513d601f19601f820116820180604052508101906121869190614101565b67ffffffffffffffff16815260208082018a905260408083018a905287018051516060840152510151608082015260a0016121c08a6124b1565b81526020016040518060400160405280600067ffffffffffffffff1681526020018867ffffffffffffffff168152508152602001600067ffffffffffffffff168152506040518263ffffffff1660e01b815260040161221f919061411e565b600060405180830381600087803b15801561223957600080fd5b505af1158015610263573d6000803e3d6000fd5b6000815160011461225d57600080fd5b8160008151811061227057612270613be1565b6020910101517fff00000000000000000000000000000000000000000000000000000000000000167f01000000000000000000000000000000000000000000000000000000000000001492915050565b60208101516122db906122d49060006118fd565b8251611f76565b6122e457600080fd5b50565b61230b60405180606001604052806060815260200160608152602001606081525090565b600061233160405180606001604052806060815260200160608152602001606081525090565b6000808088805b6123428983613c9a565b8110156123be57612353818b61251a565b919650945092506123648382613c9a565b9050846001141561238b5761237a818b88612565565b6123849082613c9a565b9050612338565b846002141561239f5761237a818b88612583565b84600314156123b35761237a818b886125a3565b61237a84828c6125c3565b509399969850959650505050505050565b6000807a184f03e93ff9f4daa797ed6e38ed64bf6a1f0100000000000000008310612418577a184f03e93ff9f4daa797ed6e38ed64bf6a1f010000000000000000830492506040015b6d04ee2d6d415b85acef81000000008310612444576d04ee2d6d415b85acef8100000000830492506020015b662386f26fc10000831061246257662386f26fc10000830492506010015b6305f5e100831061247a576305f5e100830492506008015b612710831061248e57612710830492506004015b606483106124a0576064830492506002015b600a83106105435760010192915050565b606060006124be8361267c565b67ffffffffffffffff8111156124d6576124d6612e41565b6040519080825280601f01601f191660200182016040528015612500576020820181803683370190505b5090506000612511846020846126ec565b82525092915050565b600080600080600061252c87876127fa565b915091506000826007166005811115612547576125476130cc565b90506000612556600885614218565b99919850919650945050505050565b60008060006125748686612902565b908552925050505b9392505050565b60008060006125928686612920565b602095909501525091949350505050565b60008060006125b28686612920565b604095909501525091949350505050565b600060018460058111156125d9576125d96130cc565b14156125e75750600861257c565b60058460058111156125fb576125fb6130cc565b14156126095750600461257c565b600084600581111561261d5761261d6130cc565b141561263957600061262f84846127fa565b925061257c915050565b600284600581111561264d5761264d6130cc565b1461265757600080fd5b60008061266485856127fa565b90925090506126738282613c9a565b9250505061257c565b60008061268d836000015151612939565b612698906001613c9a565b6126a29082613c9a565b90506126b2836020015151612939565b6126bd906001613c9a565b6126c79082613c9a565b90506126d7836040015151612939565b6126e2906001613c9a565b61257c9082613c9a565b60408051600080825260208201808452825190208651919386938493612714929091016139f0565b60405160208183030381529060405280519060200120146127655761273d60016000838761294e565b6127479082613c9a565b905061275886600001518286612964565b6127629082613c9a565b90505b602086015151156127a55761277d600280838761294e565b6127879082613c9a565b905061279886602001518286612979565b6127a29082613c9a565b90505b604086015151156127e6576127be60036002838761294e565b6127c89082613c9a565b90506127d986604001518286612979565b6127e39082613c9a565b90505b6127f08282613cb2565b9695505050505050565b6000806000806000602086516128109190613c9a565b96860196905060805b60808116608014156128f357868803821161286c5762461bcd60e51b6000526020600452600f6024527f6c656e677468206f766572666c6f77000000000000000000000000000000000060445260536000fd5b875160005b602081106080841660801416156128ec57888a0384116128c95762461bcd60e51b6000526020600452600f6024527f6c656e677468206f766572666c6f77000000000000000000000000000000000060445260536000fd5b6001998a019982821a607f8116600788021b979097179695810195935001612871565b5050612819565b509193509150505b9250929050565b6060600080600061291386866129cf565b9097909650945050505050565b6060600061292e84846129cf565b915091509250929050565b600061294482612a92565b6105439083613c9a565b60006008850260078516176127f0818585612aaf565b6000612971848484612979565b949350505050565b82516000908161298a828686612aaf565b905060008186018501602088015b848310156129b757805160001a82536001928301929182019101612998565b506129c490508183613c9a565b979650505050505050565b606060008060006129e086866127fa565b9150915060008267ffffffffffffffff8111156129ff576129ff612e41565b6040519080825280601f01601f191660200182016040528015612a29576020820181803683370190505b509050600060208751612a3c9190613c9a565b90508084612a4a858b613c9a565b612a549190613c9a565b1115612a6257612a6261423a565b868801830160208301612a76828288612af2565b83612a818787613c9a565b975097505050505050509250929050565b60071c600060015b82156105435760079290921c91600101612a9a565b600080828401607f86165b600787901c15612ae2578060801782535060079590951c9460019182019101607f8616612aba565b8082535050600101949350505050565b80612afc57505050565b6020811115612b355782518252612b14602083613c9a565b9150612b21602084613c9a565b9250612b2e602082613cb2565b9050612afc565b60006001612b44836020613cb2565b612b5090610100614334565b612b5a9190613cb2565b935183518516941916939093179091525050565b50805460008255906000526020600020908101906122e49190612d33565b50805460008255906000526020600020908101906122e49190612d50565b828054828255906000526020600020908101928215612bff579160200282015b82811115612bff57825182546001600160a01b0319166001600160a01b03909116178255602090920191600190910190612bca565b50612c0b929150612d6d565b5090565b828054828255906000526020600020908101928215612c5b5760005260206000209182015b82811115612c5b578254612c4b9083908590612d82565b5091600101919060010190612c34565b50612c0b929150612d50565b828054828255906000526020600020908101928215612cb35760005260206000209182015b82811115612cb3578254612ca39083908590612dc2565b5091600101919060010190612c8c565b50612c0b929150612d33565b828054612ccb90613949565b90600052602060002090601f016020900481019282612ced5760008555612bff565b82601f10612d0657805160ff1916838001178555612bff565b82800160010185558215612bff579182015b82811115612bff578251825591602001919060010190612d18565b80821115612c0b576000612d478282612b8c565b50600101612d33565b80821115612c0b576000612d648282612e0e565b50600101612d50565b5b80821115612c0b5760008155600101612d6e565b828054828255906000526020600020908101928215612bff5760005260206000209182015b82811115612bff578254825591600101919060010190612da7565b828054828255906000526020600020908101928215612c5b5760005260206000209182015b82811115612c5b578254612dfe9083908590612d82565b5091600101919060010190612de7565b50805460008255906000526020600020908101906122e49190612d6d565b6001600160a01b03811681146122e457600080fd5b634e487b7160e01b600052604160045260246000fd5b60405160a0810167ffffffffffffffff81118282101715612e7a57612e7a612e41565b60405290565b604051601f8201601f1916810167ffffffffffffffff81118282101715612ea957612ea9612e41565b604052919050565b600067ffffffffffffffff821115612ecb57612ecb612e41565b50601f01601f191660200190565b600082601f830112612eea57600080fd5b8135612efd612ef882612eb1565b612e80565b818152846020838601011115612f1257600080fd5b816020850160208301376000918101602001919091529392505050565b60008060408385031215612f4257600080fd5b8235612f4d81612e2c565b9150602083013567ffffffffffffffff811115612f6957600080fd5b612f7585828601612ed9565b9150509250929050565b60006101208284031215612f9257600080fd5b50919050565b60008060408385031215612fab57600080fd5b823567ffffffffffffffff811115612fc257600080fd5b612fce85828601612f7f565b9250506020830135612fdf81612e2c565b809150509250929050565b60005b83811015613005578181015183820152602001612fed565b838111156103715750506000910152565b6000815180845261302e816020860160208601612fea565b601f01601f19169290920160200192915050565b60208152600061257c6020830184613016565b60006020828403121561306757600080fd5b813561257c81612e2c565b6000806040838503121561308557600080fd5b823561309081612e2c565b946020939093013593505050565b600080604083850312156130b157600080fd5b82356130bc81612e2c565b91506020830135612fdf81612e2c565b634e487b7160e01b600052602160045260246000fd5b6005811061310057634e487b7160e01b600052602160045260246000fd5b9052565b6020810161054382846130e2565b600381106122e457600080fd5b803561312a81613112565b919050565b60008083601f84011261314157600080fd5b50813567ffffffffffffffff81111561315957600080fd5b6020830191508360208260051b85010111156128fb57600080fd5b60008083601f84011261318657600080fd5b50813567ffffffffffffffff81111561319e57600080fd5b6020830191508360208285010111156128fb57600080fd5b600060408284031215612f9257600080fd5b60008060008060008060008060008060c08b8d0312156131e757600080fd5b6131f08b61311f565b995060208b013567ffffffffffffffff8082111561320d57600080fd5b6132198e838f0161312f565b909b50995060408d013591508082111561323257600080fd5b61323e8e838f01613174565b909950975060608d013591508082111561325757600080fd5b6132638e838f01613174565b909750955060808d013591508082111561327c57600080fd5b6132888e838f016131b6565b945060a08d013591508082111561329e57600080fd5b506132ab8d828e01613174565b915080935050809150509295989b9194979a5092959850565b600080600080600080606087890312156132dd57600080fd5b863567ffffffffffffffff808211156132f557600080fd5b6133018a838b01613174565b9098509650602089013591508082111561331a57600080fd5b6133268a838b01613174565b9096509450604089013591508082111561333f57600080fd5b5061334c89828a01613174565b979a9699509497509295939492505050565b600581106122e457600080fd5b6000806000806080858703121561338157600080fd5b843561338c81612e2c565b9350602085013567ffffffffffffffff8111156133a857600080fd5b6133b487828801612ed9565b93505060408501356133c58161335e565b9396929550929360600135925050565b600060808284031215612f9257600080fd5b60008060a083850312156133fa57600080fd5b823561340581612e2c565b915061341484602085016133d5565b90509250929050565b6000602080830181845280855180835260408601915060059250604081841b87010184880160005b838110156134e257888303603f1901855281518051808552908801908885019080891b86018a0160005b828110156134cc57878203601f1901845284518051808452908d01908d84019060005b818110156134b75783516001600160a01b03168352928f0192918f0191600101613492565b5050958d0195948d019492505060010161346f565b50978a0197955050509187019150600101613445565b509098975050505050505050565b6000806000806080858703121561350657600080fd5b843561351181612e2c565b966020860135965060408601359560600135945092505050565b60008060008060008060008060008060008060e08d8f03121561354d57600080fd5b6135568d61311f565b9b5067ffffffffffffffff60208e0135111561357157600080fd5b6135818e60208f01358f0161312f565b909b50995067ffffffffffffffff60408e0135111561359f57600080fd5b6135af8e60408f01358f01613174565b909950975067ffffffffffffffff60608e013511156135cd57600080fd5b6135dd8e60608f01358f01613174565b909750955067ffffffffffffffff60808e013511156135fb57600080fd5b61360b8e60808f01358f016131b6565b945067ffffffffffffffff60a08e0135111561362657600080fd5b6136368e60a08f01358f01613174565b909450925067ffffffffffffffff60c08e0135111561365457600080fd5b6136648e60c08f01358f01613174565b81935080925050509295989b509295989b509295989b565b6000806040838503121561368f57600080fd5b823567ffffffffffffffff8111156136a657600080fd5b612fce85828601612ed9565b600080600080604085870312156136c857600080fd5b843567ffffffffffffffff808211156136e057600080fd5b6136ec88838901613174565b9096509450602087013591508082111561370557600080fd5b5061371287828801613174565b95989497509550505050565b60008060006060848603121561373357600080fd5b505081359360208301359350604090920135919050565b60008060008060e0858703121561376057600080fd5b843561376b81612e2c565b9350602085013567ffffffffffffffff81111561378757600080fd5b61379387828801612ed9565b9350506137a386604087016133d5565b915060c08501356137b38161335e565b939692955090935050565b600080604083850312156137d157600080fd5b50508035926020909101359150565b60008060008060e085870312156137f657600080fd5b843567ffffffffffffffff8082111561380e57600080fd5b61381a88838901612ed9565b95506020870135915061382c82612e2c565b9093506040860135908082111561384257600080fd5b5085016060818803121561385557600080fd5b915061386486606087016133d5565b905092959194509250565b6000806000806060858703121561388557600080fd5b843567ffffffffffffffff8082111561389d57600080fd5b6138a988838901612f7f565b955060208701359150808211156138bf57600080fd5b506138cc87828801613174565b90945092505060408501356137b381612e2c565b6000808335601e198436030181126138f757600080fd5b83018035915067ffffffffffffffff82111561391257600080fd5b6020019150368190038213156128fb57600080fd5b6001600160a01b03831681526040602082015260006129716040830184613016565b600181811c9082168061395d57607f821691505b60208210811415612f9257634e487b7160e01b600052602260045260246000fd5b60006080828403121561399057600080fd5b6040516080810181811067ffffffffffffffff821117156139b3576139b3612e41565b8060405250823581526020830135602082015260408301356040820152606083013560ff811681146139e457600080fd5b60608201529392505050565b60008251613a02818460208701612fea565b9190910192915050565b60008154613a1981613949565b808552602060018381168015613a365760018114613a4a57613a78565b60ff19851688840152604088019550613a78565b866000528260002060005b85811015613a705781548a8201860152908301908401613a55565b890184019650505b505050505092915050565b6001600160a01b038416815260606020820152600060608201845480825260808401915060808160051b85010186600052602060002060005b83811015613aec57868303607f19018552613ad78383613a0c565b60209590950194925060019182019101613abc565b505084810360408601528092508554915081815260208101925060208260051b82010186600052602060002060005b84811015613bd257601f198085850301875283835480865260208601915060208160051b87010185600052602060002060005b83811015613bb4578589840301855282825480855260208501915083600052602060002060005b82811015613b9c5781546001600160a01b0316845260209093019260019182019101613b75565b50505060209590950194925060019182019101613b4e565b50506020999099019895505050600192830192919091019050613b1b565b50909998505050505050505050565b634e487b7160e01b600052603260045260246000fd5b6000808354613c0581613949565b60018281168015613c1d5760018114613c2e57613c5d565b60ff19841687528287019450613c5d565b8760005260208060002060005b85811015613c545781548a820152908401908201613c3b565b50505082870194505b50929695505050505050565b634e487b7160e01b600052601160045260246000fd5b6000600019821415613c9357613c93613c69565b5060010190565b60008219821115613cad57613cad613c69565b500190565b600082821015613cc457613cc4613c69565b500390565b634e487b7160e01b600052603160045260246000fd5b604081526000613cf26040830185613016565b905061257c60208301846130e2565b67ffffffffffffffff811681146122e457600080fd5b600060208284031215613d2957600080fd5b813561257c81613d01565b81835281816020850137506000828201602090810191909152601f909101601f19169091010190565b608081526000613d7160808301888a613d34565b8281036020840152613d84818789613d34565b905067ffffffffffffffff851660408401528281036060840152613da88185613016565b9998505050505050505050565b6001600160a01b03831681526040602082015260006129716040830184613a0c565b6000613de5612ef884612eb1565b9050828152838383011115613df957600080fd5b61257c836020830184612fea565b60008060408385031215613e1a57600080fd5b8251613e2581612e2c565b602084015190925067ffffffffffffffff811115613e4257600080fd5b8301601f81018513613e5357600080fd5b612f7585825160208401613dd7565b60008351613e74818460208801612fea565b9190910191825250602001919050565b604081526000613e976040830185613016565b8281036020840152613ea98185613016565b95945050505050565b805161312a8161335e565b805161312a81613112565b600082601f830112613ed957600080fd5b61257c83835160208501613dd7565b600060408284031215613efa57600080fd5b6040516040810167ffffffffffffffff8282108183111715613f1e57613f1e612e41565b816040528293508451915080821115613f3657600080fd5b613f4286838701613ec8565b83526020850151915080821115613f5857600080fd5b50613f6585828601613ec8565b6020830152505092915050565b600082601f830112613f8357600080fd5b8151602067ffffffffffffffff80831115613fa057613fa0612e41565b8260051b613faf838201612e80565b9384528581018301938381019088861115613fc957600080fd5b84880192505b8583101561400557825184811115613fe75760008081fd5b613ff58a87838c0101613ec8565b8352509184019190840190613fcf565b98975050505050505050565b8051801515811461312a57600080fd5b6000806040838503121561403457600080fd5b825167ffffffffffffffff8082111561404c57600080fd5b9084019060a0828703121561406057600080fd5b614068612e57565b61407183613eb2565b815261407f60208401613ebd565b602082015260408301518281111561409657600080fd5b6140a288828601613ee8565b6040830152506060830151828111156140ba57600080fd5b6140c688828601613f72565b6060830152506080830151828111156140de57600080fd5b6140ea88828601613ec8565b608083015250935061341491505060208401614011565b60006020828403121561411357600080fd5b815161257c81613d01565b6020815261413960208201835167ffffffffffffffff169052565b60006020830151610120806040850152614157610140850183613016565b91506040850151601f19808685030160608701526141758483613016565b935060608701519150808685030160808701526141928483613016565b935060808701519150808685030160a08701526141af8483613016565b935060a08701519150808685030160c0870152506141cd8382613016565b92505060c08501516141f960e0860182805167ffffffffffffffff908116835260209182015116910152565b5060e085015167ffffffffffffffff8116858301525090949350505050565b60008261423557634e487b7160e01b600052601260045260246000fd5b500490565b634e487b7160e01b600052600160045260246000fd5b600181815b8085111561428b57816000190482111561427157614271613c69565b8085161561427e57918102915b93841c9390800290614255565b509250929050565b6000826142a257506001610543565b816142af57506000610543565b81600181146142c557600281146142cf576142eb565b6001915050610543565b60ff8411156142e0576142e0613c69565b50506001821b610543565b5060208310610133831016604e8410600b841016171561430e575081810a610543565b6143188383614250565b806000190482111561432c5761432c613c69565b029392505050565b600061257c838361429356fe4d696e694d6573736167653a20457365206d656e73616a696e206e6f2065737461a26469706673582212203b50089a82c72f3652662efcfd16c234251263e8a13a6370f12eb9d04b8ca48a64736f6c634300080900333435613532373531643039626339396365616564303865643264643439373933000000000000000000000000eca8bb9be63164ff5b9f1e0a3a6fc8b369e8455f67da4e2c4cf70153dbf0434396da0756dec4d9f12fe0d753b9157600c25b2c4930786637333931306464623365333561326462363939323665376434323264663435613532373531643039626339396365616564303865643264643439373933306537356232306264646232333431666264333133613834393235353664373863313663613564643763313430633031666130633536633033363134343861353066307836366465306235343633353562386463366232343436363233363562386630783131366261366431613236323165626431663038366630306464666535353078363664653062353436333535623864633662323434363632333635623866373562323062646462323334316662643331336138343932353536643738633131653078313136626136643161323632316562643166303836663030646466653535366361356464376331343063303166613063353663303336313434386135306663623078663733393130646462336533356132646236393932366537643432326466",
  "immutableReferences": {},
  "source": "// SPDX-License-Identifier: Apache-2.0\npragma solidity ^0.8.9;\n\nimport \"@hyperledger-labs/yui-ibc-solidity/contracts/core/OwnableIBCHandler.sol\";\nimport \"solidity-bytes-utils/contracts/BytesLib.sol\";\nimport \"../lib/PacketMssg.sol\";\nimport \"@openzeppelin/contracts/utils/Strings.sol\";\n\ncontract SCAccess is IIBCModule {\n    IBCHandler ibcHandler;\n\n    using BytesLib for *;\n\n    address private owner;\n\n    enum Acceso {\n        no_registro, // por defecto\n        acceso_total, //acceso mediante caso 1, usuario-tercero\n        acceso_parcial, //acceso mediante caso 2, usuario-tercero info parcial\n        acceso_usuario_y_terceros_total, //acceso mediante caso 3, usuario permite: issuer-tercero\n        acceso_denegado //acceso otorgado previamente PERO ELIMINADO posteriormente\n    }\n\n    Acceso constant defaultaccess = Acceso.no_registro;\n\n    address[][] public entidades1cert;\n    address[][][] public entidades;\n\n    //mapping codigo del certificado - holder\n    mapping(string => address) private holders;\n\n    //mapping espejo del anterior para el getAccessList\n    mapping(address => string[]) public holdersEspejo;\n    //mapping codigo - verifier - permisos de acceso\n    mapping(string => mapping(address => Acceso)) public access;\n    //mapping provisional verifier - ultima hash cifrada y salteada recibida\n    mapping(address => string) private _mensajin;\n    //mapping usuario - nonce para firmas\n    mapping(address => uint256) private nonce_sign;\n\n    //mappings necesarios para manejo sobre los tipos de acceso para cada verificador y certificado\n    //mapping direccion - tipo de acceso\n    mapping(address => mapping(address => Acceso)) public accesslist;\n    //mapping holder - certificados de ese holder - tipos de acceso - verifiers para cada tipo de accceso\n    mapping(address => mapping(string => mapping(Acceso => address[])))\n        public accesslista;\n    //mapping holder - entidades-certificado-tipo de acceso\n    mapping(address => address[][][]) public userEntidades;\n\n    //estructura de firma empleada para validar al usuario\n    struct FirmaValidacion {\n        bytes32 _hashCodeCert;\n        bytes32 _r;\n        bytes32 _s;\n        uint8 _v;\n    }\n\n    //parametros para las conexiones del relayer\n    struct RelayerParams {\n        string sourcePort;\n        string sourceChannel;\n        uint64 timeoutHeight;\n    }\n\n    constructor(IBCHandler ibcHandler_) public {\n        owner = msg.sender;\n\n        ibcHandler = ibcHandler_;\n        // se anaden parametros para facilitar los tests y pruebas\n        //alice es holder de cert1 Cheddar\n        holders[\n            \"0xf73910ddb3e35a2db69926e7d422df45a52751d09bc99ceaed08ed2dd497930e\"\n        ] = 0xEca8bB9Be63164Ff5b9F1e0a3a6fC8b369E8455F;\n\n        //alice es holder de cert2 Glasha\n        holders[\n            \"0x66de0b546355b8dc6b244662365b8f75b20bddb2341fbd313a8492556d78c11e\"\n        ] = 0xa89F47C6b463f74d87572b058427dA0A13ec5425;\n\n        //bob es holder de cert3 Moon\n        holders[\n            \"0x116ba6d1a2621ebd1f086f00ddfe556ca5dd7c140c01fa0c56c0361448a50fcb\"\n        ] = 0xF7E8F12cC45A0798802D57378449D9D8A3baCD57;\n\n        //espejo del anterior con lista de certificados que posee\n        holdersEspejo[0xEca8bB9Be63164Ff5b9F1e0a3a6fC8b369E8455F] = [\n            \"0xf73910ddb3e35a2db69926e7d422df45a52751d09bc99ceaed08ed2dd497930e\"\n        ];\n\n        holdersEspejo[0xa89F47C6b463f74d87572b058427dA0A13ec5425] = [\n            \"0x66de0b546355b8dc6b244662365b8f75b20bddb2341fbd313a8492556d78c11e\"\n        ];\n\n        holdersEspejo[0xF7E8F12cC45A0798802D57378449D9D8A3baCD57] = [\n            \"0x116ba6d1a2621ebd1f086f00ddfe556ca5dd7c140c01fa0c56c0361448a50fcb\"\n        ];\n\n        //////////////////////////////////////////////////////////////////////////////////////////////\n\n        //alice puede acceder al certificado Cheddar con esta clave, la clave 1.1\n        access[\n            \"0xf73910ddb3e35a2db69926e7d422df45a52751d09bc99ceaed08ed2dd497930e\"\n        ][0xEca8bB9Be63164Ff5b9F1e0a3a6fC8b369E8455F] = Acceso.acceso_total;\n\n        //alice puede acceder al certificado Glasha con esta clave, la clave 1.2\n        access[\n            \"0x66de0b546355b8dc6b244662365b8f75b20bddb2341fbd313a8492556d78c11e\"\n        ][0xEca8bB9Be63164Ff5b9F1e0a3a6fC8b369E8455F] = Acceso.acceso_total;\n\n        //bob no puede acceder a nada de alice hasta que alice no le de acceso\n        ////\n\n        //bob puede acceder al certificado Moon con esta clave, la clave 2.1\n        access[\n            \"0x116ba6d1a2621ebd1f086f00ddfe556ca5dd7c140c01fa0c56c0361448a50fcb\"\n        ][0xF7E8F12cC45A0798802D57378449D9D8A3baCD57] = Acceso.acceso_total;\n\n        //holder, certificado, nvl acceso, verifiers\n        //alice\n        accesslista[0xEca8bB9Be63164Ff5b9F1e0a3a6fC8b369E8455F][\n            \"0xf73910ddb3e35a2db69926e7d422df45a52751d09bc99ceaed08ed2dd497930e\"\n        ][Acceso.acceso_total] = [\n            0xEca8bB9Be63164Ff5b9F1e0a3a6fC8b369E8455F,\n            0xa89F47C6b463f74d87572b058427dA0A13ec5425\n        ];\n        accesslista[0xEca8bB9Be63164Ff5b9F1e0a3a6fC8b369E8455F][\n            \"0xf73910ddb3e35a2db69926e7d422df45a52751d09bc99ceaed08ed2dd497930e\"\n        ][Acceso.acceso_parcial] = [\n            0x95222290DD7278Aa3Ddd389Cc1E1d165CC4BAfe5,\n            0x478D97356251BF1F1e744587E67207dAb100CaDb\n        ];\n        accesslista[0xEca8bB9Be63164Ff5b9F1e0a3a6fC8b369E8455F][\n            \"0x66de0b546355b8dc6b244662365b8f75b20bddb2341fbd313a8492556d78c11e\"\n        ][Acceso.acceso_total] = [\n            0xEca8bB9Be63164Ff5b9F1e0a3a6fC8b369E8455F,\n            0x4838B106FCe9647Bdf1E7877BF73cE8B0BAD5f97\n        ];\n\n        //bob\n        accesslista[0xF7E8F12cC45A0798802D57378449D9D8A3baCD57][\n            \"0x116ba6d1a2621ebd1f086f00ddfe556ca5dd7c140c01fa0c56c0361448a50fcb\"\n        ][Acceso.acceso_total] = [\n            0xF7E8F12cC45A0798802D57378449D9D8A3baCD57,\n            0x333343333CE9647Bdf1e7877bf73ce8b0Bad5F97\n        ];\n    }\n\n    event Mint(address indexed to, string message);\n\n    event Gavincall(address indexed to, bytes message);\n\n    event Transfer(address indexed from, address indexed to, string message);\n\n    event ModifyAccess(\n        address indexed entity,\n        string certificate,\n        Acceso access\n    );\n\n    event NonceSign(uint256 nonce);\n\n    event EventoCacnea(\n        bytes32 firmaHashCode,\n        bytes32 abiFirmaHashCode,\n        bytes noncebytes,\n        uint256 nonce\n    );\n\n    event SendTransfer(\n        address indexed from,\n        address indexed to,\n        string sourcePort,\n        string sourceChannel,\n        uint64 timeoutHeight,\n        string message\n    );\n\n    event CertEntites(\n        address from,\n        string[] certsAddress,\n        address[][][] accessList\n    );\n\n    event UserAccess(\n        address from,\n        string result\n    );\n\n    modifier onlyOwner() {\n        require(msg.sender == owner, \"MiniMessage: caller is not the owner\");\n        _;\n    }\n\n    modifier onlyIBC() {\n        require(\n            msg.sender == address(ibcHandler),\n            \"MiniMessage: caller is not the ibcHandler\"\n        );\n        _;\n    }\n\n    function getNonce(address user) public view returns (uint256) {\n        return nonce_sign[user];\n    }\n\n    //Crea una lista de verificadores con diferentes tipos de acceso sobre los certificados\n    //poseidos por holder.\n    function getAccessList(address holder) public {\n        string[] storage certificates = holdersEspejo[holder];\n\n        delete entidades;\n        delete entidades1cert;\n\n        Acceso[4] memory tipo_de_acceso = [\n            Acceso.acceso_total,\n            Acceso.acceso_parcial,\n            Acceso.acceso_usuario_y_terceros_total,\n            Acceso.acceso_denegado\n        ];\n\n        for (uint256 i = 0; i < certificates.length; i++) {\n            for (uint j = 0; j < 4; j++) {\n                Acceso acceso = tipo_de_acceso[j];\n                address[] memory entidad = accesslista[holder][certificates[i]][\n                    acceso\n                ];\n                entidades1cert.push(entidad);\n            }\n            entidades.push(entidades1cert);\n            delete entidades1cert;\n        }\n        userEntidades[holder] = entidades;\n    }\n\n    //Devuelve las entidades a las que el holder ha dado permiso de acceso y a que certificados.\n    function getEntidades(\n        address holder,\n        FirmaValidacion calldata firma\n    ) public returns (address[][][] memory) {\n        address signer = _getSigner(firma);\n        require(\n            firma._hashCodeCert ==\n                keccak256(\n                    abi.encodePacked(Strings.toString(nonce_sign[signer]))\n                ),\n            \"Invalid signer\"\n        );\n        require(\n            holder == signer,\n            \"Invalid signer. Msg signer is not the user requested.\"\n        );\n\n        emit CertEntites(holder, holdersEspejo[holder], userEntidades[holder]);\n\n        return userEntidades[holder];\n    }\n\n    //Permite al usuario, tras verificarse con su firma, modificar el tipo de acceso accessvalue que ha dado a\n    // un verificador entity sobre un certificado certificate\n    function modifyAccess(\n        address entity,\n        string memory certificate,\n        FirmaValidacion calldata firma,\n        Acceso accessvalue\n    ) external {\n        address signer = _getSigner(firma);\n        require(\n            firma._hashCodeCert ==\n                keccak256(\n                    abi.encodePacked(Strings.toString(nonce_sign[signer]))\n                ),\n            \"Invalid signer\"\n        );\n        require(holders[certificate] == signer, \"Invalid signer 2\");\n\n        nonce_sign[signer] = nonce_sign[signer] + 1;\n        //se anade al mapping access la nueva informacion\n        access[certificate][entity] = accessvalue;\n\n        //se borra el tipo de acceso previo en el array antes de guardar el nuevo\n        Acceso[4] memory tipo_de_acceso = [\n            Acceso.acceso_total,\n            Acceso.acceso_parcial,\n            Acceso.acceso_usuario_y_terceros_total,\n            Acceso.acceso_denegado\n        ];\n        for (uint j = 0; j < 4; j++) {\n            Acceso acceso = tipo_de_acceso[j];\n            address[] storage entidad = accesslista[signer][certificate][\n                acceso\n            ];\n\n            for (uint i = 0; i < entidad.length; i++) {\n                if (entidad[i] == entity) {\n                    for (uint k = i; k < entidad.length - 1; k++) {\n                        entidad[k] = entidad[k + 1];\n                    }\n                    entidad.pop();\n                }\n            }\n        }\n        //ya borrado el valor anterior, se anade al mapping accesslista la nueva informacion\n        accesslista[signer][certificate][accessvalue].push(entity);\n\n        emit ModifyAccess(entity, certificate, accessvalue);\n    }\n\n    //funcion para verificar la firma del usuario\n    function _getSigner(\n        FirmaValidacion memory firma\n    ) internal pure returns (address) {\n        bytes memory prefix = \"\\x19Ethereum Signed Message:\\n32\";\n        bytes32 prefixedHashMessage = keccak256(\n            abi.encodePacked(prefix, firma._hashCodeCert)\n        );\n        address signer = ecrecover(\n            prefixedHashMessage,\n            firma._v,\n            firma._r,\n            firma._s\n        );\n\n        return signer;\n    }\n\n    //funcion para enviar un dato message a la otra cadena mediante el relayer\n    function sendTransfer(\n        string memory message,\n        address receiver,\n        RelayerParams calldata param,\n        FirmaValidacion calldata firma\n    ) external {\n        address signer = _getSigner(firma);\n        require(\n            firma._hashCodeCert ==\n                keccak256(\n                    abi.encodePacked(Strings.toString(nonce_sign[signer]))\n                ),\n            \"Invalid signer\"\n        );\n\n        nonce_sign[signer] = nonce_sign[signer] + 1;\n\n        if (\n            (access[message][signer] == Acceso.acceso_total) ||\n            (access[message][signer] == Acceso.acceso_parcial) ||\n            (access[message][signer] ==\n                Acceso.acceso_usuario_y_terceros_total) ||\n            (holders[message] == signer)\n        ) {\n            _sendPacket(\n                MiniMessagePacketData.Data({\n                    message: message,\n                    sender: abi.encodePacked(signer),\n                    receiver: abi.encodePacked(receiver)\n                }),\n                param.sourcePort,\n                param.sourceChannel,\n                param.timeoutHeight\n            );\n            emit SendTransfer(\n                signer,\n                receiver,\n                param.sourcePort,\n                param.sourceChannel,\n                param.timeoutHeight,\n                message\n            );\n            //Esto no funciona\n            _mensajin[msg.sender] = \"RETRIEVING CERTIFICATE\";\n\n        } else {\n            _mensajin[msg.sender] = \"NO ACCESS TO CERTIFICATION\";\n        }\n        emit UserAccess(\n            signer,\n            _mensajin[msg.sender]\n        );\n    }\n\n    function mint(address account, string memory message) external onlyOwner {\n        require(_mint(account, message));\n    }\n\n    function transfer(address to, string memory message) external {\n        bool res;\n        string memory mssg;\n        (res, mssg) = _transfer(msg.sender, to, message);\n        require(res, mssg);\n    }\n\n    function balanceOf(address account) public view returns (string memory) {\n        return _mensajin[account];\n    }\n\n    function _mint(\n        address account,\n        string memory message\n    ) internal returns (bool) {\n        _mensajin[account] = message; //cacnea\n        emit Mint(account, message);\n        return true;\n    }\n\n    //funcion que recibe un string, y en caso de que sea el esperado, ejecuta la funcion de envio\n    //con el valor asociado\n    function _gavincall(bytes memory _mssg) internal returns (bool) {\n        // entei, que pasa si recibe de scstorage-scdata (address account, bytes memory )\n        (address account, bytes memory message_s) = abi.decode(\n            _mssg,\n            (address, bytes)\n        );\n        string memory data_s = string(message_s);\n\n        //la funcion detecta si el origen del dato es de un usuario o de SCVolcado (y por lo tanto, un\n        //dato nuevo). Si el dato hexadecimal comienza por P, es un dato de SCVolcado, y\n        //por lo tanto, se anade a la lista de codigos registrados.\n        //En caso contrario, es un dato solicitado por un usuario recibido de SCData, y se envia\n        //al verificador\n        bytes memory strBytes = bytes(data_s);\n        if (strBytes[0] == \"P\") {\n            bytes memory result = new bytes(strBytes.length - 1);\n            for (uint i = 1; i < strBytes.length; i++) {\n                result[i - 1] = strBytes[i];\n            }\n            string memory newdata = string(result); //el code del certificado\n\n            //se guarda el code del certificado en holders y holdersEspejo\n            holders[newdata] = account;\n            holdersEspejo[account].push(newdata);\n            //se anade al holder del certificado con acceso total sobre el mismo\n            access[newdata][account] = Acceso.acceso_total;\n            accesslista[account][newdata][Acceso.acceso_total].push(account);\n        } else {\n            if (\n                keccak256(abi.encodePacked(data_s)) !=\n                keccak256(abi.encodePacked(\"FAILED\"))\n            ) {\n                _mensajin[account] = data_s;\n            } else {\n                _mensajin[account] = \"Permission = False\";\n            }\n        }\n        emit Gavincall(account, message_s);\n        return true; //este return esta para comprobaciones, podria devolver un true y ya o nada\n    }\n\n    function _transfer(\n        address from,\n        address to,\n        string memory message\n    ) internal returns (bool, string memory) {\n        if (\n            keccak256(abi.encodePacked(_mensajin[from])) !=\n            keccak256(abi.encodePacked(message))\n        ) {\n            return (false, \"MiniMessage: Ese mensajin no esta\");\n        }\n        _mensajin[from] = \"\";\n        _mensajin[to] = message;\n        emit Transfer(from, to, message);\n        return (true, \"\");\n    }\n\n    /// Module callbacks ///\n\n    function onRecvPacket(\n        Packet.Data calldata packet,\n        address relayer\n    ) external virtual override onlyIBC returns (bytes memory acknowledgement) {\n        MiniMessagePacketData.Data memory data = MiniMessagePacketData.decode(\n            packet.data\n        );\n        //(address sendercontrato, string memory mensajillo) = abi.decode(data.message, (address, string));\n        bytes memory message_s = abi.encode(\n            data.receiver.toAddress(0),\n            data.message\n        ); //aqui mandaria mensajillo en vez de data.message\n\n        //en el momento en el que la Blockchain 2 recibe un string, se invoca a gavincall,\n        //funcion provisional que simplifica el proceso de volver a invocar\n        //la funcion de envio en caso de que haya recibido un codigo correcto\n        //aqui hard-coded como \"cacnea\"\n\n        bool respuesta = _gavincall(message_s);\n\n        return (_newAcknowledgement(respuesta));\n        //_newAcknowledgement(_gavincall(data.receiver.toAddress(0), data.message));\n    }\n\n    function onAcknowledgementPacket(\n        Packet.Data calldata packet,\n        bytes calldata acknowledgement,\n        address relayer\n    ) external virtual override onlyIBC {\n        if (!_isSuccessAcknowledgement(acknowledgement)) {\n            _refundTokens(MiniMessagePacketData.decode(packet.data));\n        }\n    }\n\n    function onChanOpenInit(\n        Channel.Order,\n        string[] calldata connectionHops,\n        string calldata portId,\n        string calldata channelId,\n        ChannelCounterparty.Data calldata counterparty,\n        string calldata version\n    ) external virtual override {}\n\n    function onChanOpenTry(\n        Channel.Order,\n        string[] calldata connectionHops,\n        string calldata portId,\n        string calldata channelId,\n        ChannelCounterparty.Data calldata counterparty,\n        string calldata version,\n        string calldata counterpartyVersion\n    ) external virtual override {}\n\n    function onChanOpenAck(\n        string calldata portId,\n        string calldata channelId,\n        string calldata counterpartyVersion\n    ) external virtual override {}\n\n    function onChanOpenConfirm(\n        string calldata portId,\n        string calldata channelId\n    ) external virtual override {}\n\n    function onChanCloseConfirm(\n        string calldata portId,\n        string calldata channelId\n    ) external virtual override {}\n\n    function onChanCloseInit(\n        string calldata portId,\n        string calldata channelId\n    ) external virtual override {}\n\n    // Internal Functions //\n\n    //Envia un paquete de datos (creado con la libreria PacketMssg)\n    //por el canal especificado hasta la Blockchain B.\n    //El enpaquetado se hace en bytes, la libreria ya la modificamos en el\n    //\"paso anterior\" de int a string para que cuente los saltos a dar para\n    //desenpaquetar correctamente. Es Packetmssg.sol, en ../lib\n\n    //No tienes que preocuparte por canales ni puertos, usamos los\n    //de serie de YUI original, son muchas librerias y mejor no tocarlo\n    function _sendPacket(\n        MiniMessagePacketData.Data memory data,\n        string memory sourcePort,\n        string memory sourceChannel,\n        uint64 timeoutHeight\n    ) internal virtual {\n        (Channel.Data memory channel, bool found) = ibcHandler.getChannel(\n            sourcePort,\n            sourceChannel\n        );\n        require(found, \"MiniMessage: channel not found\");\n        ibcHandler.sendPacket(\n            Packet.Data({\n                sequence: ibcHandler.getNextSequenceSend(\n                    sourcePort,\n                    sourceChannel\n                ),\n                source_port: sourcePort,\n                source_channel: sourceChannel,\n                destination_port: channel.counterparty.port_id,\n                destination_channel: channel.counterparty.channel_id,\n                data: MiniMessagePacketData.encode(data),\n                timeout_height: Height.Data({\n                    revision_number: 0,\n                    revision_height: timeoutHeight\n                }),\n                timeout_timestamp: 0\n            })\n        );\n    }\n\n    function _newAcknowledgement(\n        bool success\n    ) internal pure virtual returns (bytes memory) {\n        bytes memory acknowledgement = new bytes(1);\n        if (success) {\n            acknowledgement[0] = 0x01;\n        } else {\n            acknowledgement[0] = 0x00;\n        }\n        return acknowledgement;\n    }\n\n    function _isSuccessAcknowledgement(\n        bytes memory acknowledgement\n    ) internal pure virtual returns (bool) {\n        require(acknowledgement.length == 1);\n        return acknowledgement[0] == 0x01;\n    }\n\n    //no aplica\n    function _refundTokens(\n        MiniMessagePacketData.Data memory data\n    ) internal virtual {\n        require(_mint(data.sender.toAddress(0), data.message));\n    }\n}\n",
  "sourcePath": "/Volumes/C3P0/Trabajo/UniVigo/AzureDeploys/RelayerAccessData/UtilsConfigs/contracts/access/contracts/app/SCAccess.sol",
  "compiler": {
    "name": "solc",
    "version": "0.8.9+commit.e5eed63a.Emscripten.clang"
  },
  "schemaVersion": "3.4.10",
  "updatedAt": "2024-10-25T13:12:58.284Z",
  "devdoc": {
    "kind": "dev",
    "methods": {},
    "version": 1
  },
  "userdoc": {
    "kind": "user",
    "methods": {
      "onRecvPacket((uint64,string,string,string,string,bytes,(uint64,uint64),uint64),address)": {
        "notice": "Module callbacks ///"
      }
    },
    "version": 1
  }
}