{
  "contractName": "SCVolcado",
  "abi": [
    {
      "inputs": [
        {
          "internalType": "contract IBCHandler",
          "name": "ibcHandler_",
          "type": "address"
        }
      ],
      "stateMutability": "nonpayable",
      "type": "constructor"
    },
    {
      "anonymous": false,
      "inputs": [
        {
          "indexed": false,
          "internalType": "string",
          "name": "certificate",
          "type": "string"
        },
        {
          "indexed": true,
          "internalType": "address",
          "name": "holder",
          "type": "address"
        }
      ],
      "name": "AddCertificate",
      "type": "event"
    },
    {
      "anonymous": false,
      "inputs": [
        {
          "indexed": false,
          "internalType": "address",
          "name": "issuerAddy",
          "type": "address"
        },
        {
          "indexed": false,
          "internalType": "string",
          "name": "issuerName",
          "type": "string"
        }
      ],
      "name": "AddIssuer",
      "type": "event"
    },
    {
      "anonymous": false,
      "inputs": [
        {
          "indexed": false,
          "internalType": "string",
          "name": "error",
          "type": "string"
        }
      ],
      "name": "Error",
      "type": "event"
    },
    {
      "anonymous": false,
      "inputs": [
        {
          "indexed": true,
          "internalType": "address",
          "name": "to",
          "type": "address"
        },
        {
          "indexed": false,
          "internalType": "bytes",
          "name": "message",
          "type": "bytes"
        }
      ],
      "name": "Gavincall",
      "type": "event"
    },
    {
      "anonymous": false,
      "inputs": [
        {
          "indexed": true,
          "internalType": "address",
          "name": "to",
          "type": "address"
        },
        {
          "indexed": false,
          "internalType": "string",
          "name": "message",
          "type": "string"
        }
      ],
      "name": "Mint",
      "type": "event"
    },
    {
      "anonymous": false,
      "inputs": [
        {
          "indexed": true,
          "internalType": "address",
          "name": "from",
          "type": "address"
        },
        {
          "indexed": true,
          "internalType": "address",
          "name": "to",
          "type": "address"
        },
        {
          "indexed": false,
          "internalType": "string",
          "name": "sourcePort",
          "type": "string"
        },
        {
          "indexed": false,
          "internalType": "string",
          "name": "sourceChannel",
          "type": "string"
        },
        {
          "indexed": false,
          "internalType": "uint64",
          "name": "timeoutHeight",
          "type": "uint64"
        },
        {
          "indexed": false,
          "internalType": "string",
          "name": "message",
          "type": "string"
        }
      ],
      "name": "SendTransfer",
      "type": "event"
    },
    {
      "anonymous": false,
      "inputs": [
        {
          "indexed": true,
          "internalType": "address",
          "name": "from",
          "type": "address"
        },
        {
          "indexed": true,
          "internalType": "address",
          "name": "to",
          "type": "address"
        },
        {
          "indexed": false,
          "internalType": "string",
          "name": "message",
          "type": "string"
        }
      ],
      "name": "Transfer",
      "type": "event"
    },
    {
      "inputs": [
        {
          "internalType": "bytes",
          "name": "",
          "type": "bytes"
        }
      ],
      "name": "certificate",
      "outputs": [
        {
          "internalType": "string",
          "name": "",
          "type": "string"
        }
      ],
      "stateMutability": "view",
      "type": "function"
    },
    {
      "inputs": [
        {
          "internalType": "address",
          "name": "_receiverVolcado",
          "type": "address"
        },
        {
          "internalType": "string",
          "name": "_sourcePort",
          "type": "string"
        },
        {
          "internalType": "string",
          "name": "_sourceChannel",
          "type": "string"
        },
        {
          "internalType": "uint64",
          "name": "_timeoutHeight",
          "type": "uint64"
        }
      ],
      "name": "setCommParams",
      "outputs": [],
      "stateMutability": "nonpayable",
      "type": "function"
    },
    {
      "inputs": [
        {
          "internalType": "address",
          "name": "issuerAddy",
          "type": "address"
        },
        {
          "internalType": "string",
          "name": "issuerName",
          "type": "string"
        }
      ],
      "name": "addIssuer",
      "outputs": [],
      "stateMutability": "nonpayable",
      "type": "function"
    },
    {
      "inputs": [
        {
          "internalType": "string",
          "name": "_certificate",
          "type": "string"
        },
        {
          "internalType": "bytes",
          "name": "_code",
          "type": "bytes"
        },
        {
          "internalType": "address",
          "name": "_holder",
          "type": "address"
        }
      ],
      "name": "addCertificate",
      "outputs": [],
      "stateMutability": "nonpayable",
      "type": "function"
    },
    {
      "inputs": [
        {
          "components": [
            {
              "internalType": "uint64",
              "name": "sequence",
              "type": "uint64"
            },
            {
              "internalType": "string",
              "name": "source_port",
              "type": "string"
            },
            {
              "internalType": "string",
              "name": "source_channel",
              "type": "string"
            },
            {
              "internalType": "string",
              "name": "destination_port",
              "type": "string"
            },
            {
              "internalType": "string",
              "name": "destination_channel",
              "type": "string"
            },
            {
              "internalType": "bytes",
              "name": "data",
              "type": "bytes"
            },
            {
              "components": [
                {
                  "internalType": "uint64",
                  "name": "revision_number",
                  "type": "uint64"
                },
                {
                  "internalType": "uint64",
                  "name": "revision_height",
                  "type": "uint64"
                }
              ],
              "internalType": "struct Height.Data",
              "name": "timeout_height",
              "type": "tuple"
            },
            {
              "internalType": "uint64",
              "name": "timeout_timestamp",
              "type": "uint64"
            }
          ],
          "internalType": "struct Packet.Data",
          "name": "packet",
          "type": "tuple"
        },
        {
          "internalType": "address",
          "name": "relayer",
          "type": "address"
        }
      ],
      "name": "onRecvPacket",
      "outputs": [
        {
          "internalType": "bytes",
          "name": "acknowledgement",
          "type": "bytes"
        }
      ],
      "stateMutability": "nonpayable",
      "type": "function"
    },
    {
      "inputs": [
        {
          "components": [
            {
              "internalType": "uint64",
              "name": "sequence",
              "type": "uint64"
            },
            {
              "internalType": "string",
              "name": "source_port",
              "type": "string"
            },
            {
              "internalType": "string",
              "name": "source_channel",
              "type": "string"
            },
            {
              "internalType": "string",
              "name": "destination_port",
              "type": "string"
            },
            {
              "internalType": "string",
              "name": "destination_channel",
              "type": "string"
            },
            {
              "internalType": "bytes",
              "name": "data",
              "type": "bytes"
            },
            {
              "components": [
                {
                  "internalType": "uint64",
                  "name": "revision_number",
                  "type": "uint64"
                },
                {
                  "internalType": "uint64",
                  "name": "revision_height",
                  "type": "uint64"
                }
              ],
              "internalType": "struct Height.Data",
              "name": "timeout_height",
              "type": "tuple"
            },
            {
              "internalType": "uint64",
              "name": "timeout_timestamp",
              "type": "uint64"
            }
          ],
          "internalType": "struct Packet.Data",
          "name": "packet",
          "type": "tuple"
        },
        {
          "internalType": "bytes",
          "name": "acknowledgement",
          "type": "bytes"
        },
        {
          "internalType": "address",
          "name": "relayer",
          "type": "address"
        }
      ],
      "name": "onAcknowledgementPacket",
      "outputs": [],
      "stateMutability": "nonpayable",
      "type": "function"
    },
    {
      "inputs": [
        {
          "internalType": "enum Channel.Order",
          "name": "",
          "type": "uint8"
        },
        {
          "internalType": "string[]",
          "name": "connectionHops",
          "type": "string[]"
        },
        {
          "internalType": "string",
          "name": "portId",
          "type": "string"
        },
        {
          "internalType": "string",
          "name": "channelId",
          "type": "string"
        },
        {
          "components": [
            {
              "internalType": "string",
              "name": "port_id",
              "type": "string"
            },
            {
              "internalType": "string",
              "name": "channel_id",
              "type": "string"
            }
          ],
          "internalType": "struct ChannelCounterparty.Data",
          "name": "counterparty",
          "type": "tuple"
        },
        {
          "internalType": "string",
          "name": "version",
          "type": "string"
        }
      ],
      "name": "onChanOpenInit",
      "outputs": [],
      "stateMutability": "nonpayable",
      "type": "function"
    },
    {
      "inputs": [
        {
          "internalType": "enum Channel.Order",
          "name": "",
          "type": "uint8"
        },
        {
          "internalType": "string[]",
          "name": "connectionHops",
          "type": "string[]"
        },
        {
          "internalType": "string",
          "name": "portId",
          "type": "string"
        },
        {
          "internalType": "string",
          "name": "channelId",
          "type": "string"
        },
        {
          "components": [
            {
              "internalType": "string",
              "name": "port_id",
              "type": "string"
            },
            {
              "internalType": "string",
              "name": "channel_id",
              "type": "string"
            }
          ],
          "internalType": "struct ChannelCounterparty.Data",
          "name": "counterparty",
          "type": "tuple"
        },
        {
          "internalType": "string",
          "name": "version",
          "type": "string"
        },
        {
          "internalType": "string",
          "name": "counterpartyVersion",
          "type": "string"
        }
      ],
      "name": "onChanOpenTry",
      "outputs": [],
      "stateMutability": "nonpayable",
      "type": "function"
    },
    {
      "inputs": [
        {
          "internalType": "string",
          "name": "portId",
          "type": "string"
        },
        {
          "internalType": "string",
          "name": "channelId",
          "type": "string"
        },
        {
          "internalType": "string",
          "name": "counterpartyVersion",
          "type": "string"
        }
      ],
      "name": "onChanOpenAck",
      "outputs": [],
      "stateMutability": "nonpayable",
      "type": "function"
    },
    {
      "inputs": [
        {
          "internalType": "string",
          "name": "portId",
          "type": "string"
        },
        {
          "internalType": "string",
          "name": "channelId",
          "type": "string"
        }
      ],
      "name": "onChanOpenConfirm",
      "outputs": [],
      "stateMutability": "nonpayable",
      "type": "function"
    },
    {
      "inputs": [
        {
          "internalType": "string",
          "name": "portId",
          "type": "string"
        },
        {
          "internalType": "string",
          "name": "channelId",
          "type": "string"
        }
      ],
      "name": "onChanCloseConfirm",
      "outputs": [],
      "stateMutability": "nonpayable",
      "type": "function"
    },
    {
      "inputs": [
        {
          "internalType": "string",
          "name": "portId",
          "type": "string"
        },
        {
          "internalType": "string",
          "name": "channelId",
          "type": "string"
        }
      ],
      "name": "onChanCloseInit",
      "outputs": [],
      "stateMutability": "nonpayable",
      "type": "function"
    }
  ],
  "bytecode": "0x60806040523480156200001157600080fd5b50604051620028ff380380620028ff83398101604081905262000034916200032b565b60018054336001600160a01b0319918216179091556000805482166001600160a01b038416179055604080517f663337376533643864373333646534326563303036393736366363386631306281527f31633562306239646130333239386565613133623139366163613662393965346020808301919091526007828401819052835160609381900384018120805473cbed645b1c1a6254f1149df51d3591c6b380300790881681179091557f653861353238313637333666373965396664346564643730303437633539623182527f6632643531346262333735656161363735666561633164643235613630333364828501528186019290925284519081900384018120805490961690911790945590830182528183526200287f908301396008604051620001b8907f307866373339313064646233653335613264623639393236653764343232646681527f3435613532373531643039626339396365616564303865643264643439373933602082015261306560f01b604082015260420190565b90815260200160405180910390209080519060200190620001db92919062000285565b50604051806060016040528060408152602001620028bf6040913960086040516200025a907f307836366465306235343633353562386463366232343436363233363562386681527f3735623230626464623233343166626433313361383439323535366437386331602082015261316560f01b604082015260420190565b908152602001604051809103902090805190602001906200027d92919062000285565b50506200039a565b82805462000293906200035d565b90600052602060002090601f016020900481019282620002b7576000855562000302565b82601f10620002d257805160ff191683800117855562000302565b8280016001018555821562000302579182015b8281111562000302578251825591602001919060010190620002e5565b506200031092915062000314565b5090565b5b8082111562000310576000815560010162000315565b6000602082840312156200033e57600080fd5b81516001600160a01b03811681146200035657600080fd5b9392505050565b600181811c908216806200037257607f821691505b602082108114156200039457634e487b7160e01b600052602260045260246000fd5b50919050565b6124d580620003aa6000396000f3fe608060405234801561001057600080fd5b50600436106100d45760003560e01c80638fc0859a11610081578063e74a1ac21161005b578063e74a1ac21461019c578063ef4776d21461019c578063fb8b532e146101b057600080fd5b80638fc0859a1461016d578063981389f214610180578063a113e4111461019c57600080fd5b80634942d1ac116100b25780634942d1ac14610131578063630e717f146101475780637c55fade1461015a57600080fd5b806306f16e42146100d95780632301c6f51461010257806344dd963814610115575b600080fd5b6100ec6100e736600461161e565b6101c3565b6040516100f991906116ab565b60405180910390f35b6100ec6101103660046116f3565b610268565b61012f6101233660046117f5565b50505050505050505050565b005b61012f61013f3660046118f1565b505050505050565b61012f6101553660046119a1565b610380565b61012f610168366004611a28565b6103f7565b61012f61017b366004611a9c565b6104f9565b61012f61018e366004611aea565b505050505050505050505050565b61012f6101aa366004611c3b565b50505050565b61012f6101be366004611ca7565b6105aa565b8051602081830181018051600882529282019190930120915280546101e790611d22565b80601f016020809104026020016040519081016040528092919081815260200182805461021390611d22565b80156102605780601f1061023557610100808354040283529160200191610260565b820191906000526020600020905b81548152906001019060200180831161024357829003601f168201915b505050505081565b6000546060906001600160a01b031633146102dc5760405162461bcd60e51b815260206004820152602960248201527f4d696e694d6573736167653a2063616c6c6572206973206e6f742074686520696044820152683131a430b7323632b960b91b60648201526084015b60405180910390fd5b60006103286102ee60a0860186611d57565b8080601f0160208091040260200160405190810160405280939291908181526020018383808284376000920191909152506106c692505050565b905060006103446000836040015161070190919063ffffffff16565b8251604051610357929190602001611d9e565b60408051601f198184030181529190529050600161037481610777565b93505050505b92915050565b6002805473ffffffffffffffffffffffffffffffffffffffff19166001600160a01b03861617905582516103bb906003906020860190611497565b5081516103cf906004906020850190611497565b506005805467ffffffffffffffff191667ffffffffffffffff92909216919091179055505050565b826008836040516104089190611dc0565b90815260200160405180910390209080519060200190610429929190611497565b508060078460405161043b9190611dc0565b90815260405190819003602001812080546001600160a01b0393841673ffffffffffffffffffffffffffffffffffffffff19909116179055908216907fa141851a0a292e4c9e985d75555abd0749a71ac9b3d7da5d16e79fb672dcac16906104a49086906116ab565b60405180910390a260008383336040516020016104c393929190611ddc565b60405160208183030381529060405290506101aa818360036004600560009054906101000a900467ffffffffffffffff1661083b565b6001600160a01b0382166000908152600660209081526040909120825161052292840190611497565b507f9f335c57bcceeec09cfbacf17b3eb95442121eea51cc79eee2bef40dfd0732168282604051610554929190611d9e565b60405180910390a160008160405160200161056f9190611e1b565b60405160208183030381529060405290506105a5818460036004600560009054906101000a900467ffffffffffffffff1661083b565b505050565b6000546001600160a01b031633146106165760405162461bcd60e51b815260206004820152602960248201527f4d696e694d6573736167653a2063616c6c6572206973206e6f742074686520696044820152683131a430b7323632b960b91b60648201526084016102d3565b61065583838080601f016020809104026020016040519081016040528093929190818152602001838380828437600092019190915250610a3992505050565b6101aa577f08c379a0afcc32b1a39302f7cb8073359698411ab5fd6e3edb2c02c0b5fba8aa6040516106b8906020808252600b908201527f41434b207065726469646f000000000000000000000000000000000000000000604082015260600190565b60405180910390a150505050565b6106ea60405180606001604052806060815260200160608152602001606081525090565b60006106f96020848551610aac565b509392505050565b600061070e826014611e76565b8351101561075e5760405162461bcd60e51b815260206004820152601560248201527f746f416464726573735f6f75744f66426f756e6473000000000000000000000060448201526064016102d3565b5001602001516c01000000000000000000000000900490565b6040805160018082528183019092526060916000919060208201818036833701905050905082156107ee57600160f81b816000815181106107ba576107ba611e8e565b60200101907effffffffffffffffffffffffffffffffffffffffffffffffffffffffffffff1916908160001a90535061037a565b600060f81b8160008151811061080657610806611e8e565b60200101907effffffffffffffffffffffffffffffffffffffffffffffffffffffffffffff1916908160001a90535092915050565b6109e1604051806060016040528087815260200133604051602001610878919060609190911b6bffffffffffffffffffffffff1916815260140190565b6040516020818303038152906040528152602001866040516020016108b5919060609190911b6bffffffffffffffffffffffff1916815260140190565b6040516020818303038152906040528152508480546108d390611d22565b80601f01602080910402602001604051908101604052809291908181526020018280546108ff90611d22565b801561094c5780601f106109215761010080835404028352916020019161094c565b820191906000526020600020905b81548152906001019060200180831161092f57829003601f168201915b505050505084805461095d90611d22565b80601f016020809104026020016040519081016040528092919081815260200182805461098990611d22565b80156109d65780601f106109ab576101008083540402835291602001916109d6565b820191906000526020600020905b8154815290600101906020018083116109b957829003601f168201915b505050505084610b94565b836001600160a01b0316336001600160a01b03167f7e5107b5aa7d076345d5537a58bff0f39e794fb26326d904f3f5cfe7c4883b248585858a604051610a2a9493929190611f44565b60405180910390a35050505050565b60008151600114610a4957600080fd5b81600081518110610a5c57610a5c611e8e565b6020910101517fff00000000000000000000000000000000000000000000000000000000000000167f01000000000000000000000000000000000000000000000000000000000000001492915050565b610ad060405180606001604052806060815260200160608152602001606081525090565b6000610af660405180606001604052806060815260200160608152602001606081525090565b6000808088805b610b078983611e76565b811015610b8357610b18818b610dda565b91965094509250610b298382611e76565b90508460011415610b5057610b3f818b88610e25565b610b499082611e76565b9050610afd565b8460021415610b6457610b3f818b88610e43565b8460031415610b7857610b3f818b88610e63565b610b3f84828c610e83565b509399969850959650505050505050565b600080546040517f3000217a00000000000000000000000000000000000000000000000000000000815282916001600160a01b031690633000217a90610be09088908890600401611f8d565b600060405180830381865afa158015610bfd573d6000803e3d6000fd5b505050506040513d6000823e601f3d908101601f19168201604052610c259190810190612153565b9150915080610c765760405162461bcd60e51b815260206004820152601e60248201527f4d696e694d6573736167653a206368616e6e656c206e6f7420666f756e64000060448201526064016102d3565b600054604080516101008101918290527f582418b6000000000000000000000000000000000000000000000000000000009091526001600160a01b03909116906340835e4490808363582418b6610cd28b8b6101048601611f8d565b602060405180830381865afa158015610cef573d6000803e3d6000fd5b505050506040513d601f19601f82011682018060405250810190610d139190612233565b67ffffffffffffffff16815260208082018a905260408083018a905287018051516060840152510151608082015260a001610d4d8a610f3c565b81526020016040518060400160405280600067ffffffffffffffff1681526020018867ffffffffffffffff168152508152602001600067ffffffffffffffff168152506040518263ffffffff1660e01b8152600401610dac9190612250565b600060405180830381600087803b158015610dc657600080fd5b505af1158015610123573d6000803e3d6000fd5b6000806000806000610dec8787610fa5565b915091506000826007166005811115610e0757610e0761234a565b90506000610e16600885612360565b99919850919650945050505050565b6000806000610e3486866110ad565b908552925050505b9392505050565b6000806000610e5286866110cb565b602095909501525091949350505050565b6000806000610e7286866110cb565b604095909501525091949350505050565b60006001846005811115610e9957610e9961234a565b1415610ea757506008610e3c565b6005846005811115610ebb57610ebb61234a565b1415610ec957506004610e3c565b6000846005811115610edd57610edd61234a565b1415610ef9576000610eef8484610fa5565b9250610e3c915050565b6002846005811115610f0d57610f0d61234a565b14610f1757600080fd5b600080610f248585610fa5565b9092509050610f338282611e76565b92505050610e3c565b60606000610f49836110e4565b67ffffffffffffffff811115610f6157610f61611530565b6040519080825280601f01601f191660200182016040528015610f8b576020820181803683370190505b5090506000610f9c84602084611154565b82525092915050565b600080600080600060208651610fbb9190611e76565b96860196905060805b608081166080141561109e5786880382116110175762461bcd60e51b6000526020600452600f6024527f6c656e677468206f766572666c6f77000000000000000000000000000000000060445260536000fd5b875160005b6020811060808416608014161561109757888a0384116110745762461bcd60e51b6000526020600452600f6024527f6c656e677468206f766572666c6f77000000000000000000000000000000000060445260536000fd5b6001998a019982821a607f8116600788021b97909717969581019593500161101c565b5050610fc4565b509193509150505b9250929050565b606060008060006110be8686611262565b9097909650945050505050565b606060006110d98484611262565b915091509250929050565b6000806110f5836000015151611325565b611100906001611e76565b61110a9082611e76565b905061111a836020015151611325565b611125906001611e76565b61112f9082611e76565b905061113f836040015151611325565b61114a906001611e76565b610e3c9082611e76565b6040805160008082526020820180845282519020865191938693849361117c92909101611dc0565b60405160208183030381529060405280519060200120146111cd576111a560016000838761133a565b6111af9082611e76565b90506111c086600001518286611350565b6111ca9082611e76565b90505b6020860151511561120d576111e5600280838761133a565b6111ef9082611e76565b905061120086602001518286611365565b61120a9082611e76565b90505b6040860151511561124e5761122660036002838761133a565b6112309082611e76565b905061124186604001518286611365565b61124b9082611e76565b90505b6112588282612382565b9695505050505050565b606060008060006112738686610fa5565b9150915060008267ffffffffffffffff81111561129257611292611530565b6040519080825280601f01601f1916602001820160405280156112bc576020820181803683370190505b5090506000602087516112cf9190611e76565b905080846112dd858b611e76565b6112e79190611e76565b11156112f5576112f5612399565b8688018301602083016113098282886113bb565b836113148787611e76565b975097505050505050509250929050565b600061133082611437565b61037a9083611e76565b6000600885026007851617611258818585611454565b600061135d848484611365565b949350505050565b825160009081611376828686611454565b905060008186018501602088015b848310156113a357805160001a82536001928301929182019101611384565b506113b090508183611e76565b979650505050505050565b806113c557505050565b60208111156113fe57825182526113dd602083611e76565b91506113ea602084611e76565b92506113f7602082612382565b90506113c5565b6000600161140d836020612382565b61141990610100612493565b6114239190612382565b935183518516941916939093179091525050565b60071c600060015b821561037a5760079290921c9160010161143f565b600080828401607f86165b600787901c15611487578060801782535060079590951c9460019182019101607f861661145f565b8082535050600101949350505050565b8280546114a390611d22565b90600052602060002090601f0160209004810192826114c5576000855561150b565b82601f106114de57805160ff191683800117855561150b565b8280016001018555821561150b579182015b8281111561150b5782518255916020019190600101906114f0565b5061151792915061151b565b5090565b5b80821115611517576000815560010161151c565b634e487b7160e01b600052604160045260246000fd5b60405160a0810167ffffffffffffffff8111828210171561156957611569611530565b60405290565b604051601f8201601f1916810167ffffffffffffffff8111828210171561159857611598611530565b604052919050565b600067ffffffffffffffff8211156115ba576115ba611530565b50601f01601f191660200190565b600082601f8301126115d957600080fd5b81356115ec6115e7826115a0565b61156f565b81815284602083860101111561160157600080fd5b816020850160208301376000918101602001919091529392505050565b60006020828403121561163057600080fd5b813567ffffffffffffffff81111561164757600080fd5b61135d848285016115c8565b60005b8381101561166e578181015183820152602001611656565b838111156101aa5750506000910152565b60008151808452611697816020860160208601611653565b601f01601f19169290920160200192915050565b602081526000610e3c602083018461167f565b600061012082840312156116d157600080fd5b50919050565b80356001600160a01b03811681146116ee57600080fd5b919050565b6000806040838503121561170657600080fd5b823567ffffffffffffffff81111561171d57600080fd5b611729858286016116be565b925050611738602084016116d7565b90509250929050565b6003811061174e57600080fd5b50565b80356116ee81611741565b60008083601f84011261176e57600080fd5b50813567ffffffffffffffff81111561178657600080fd5b6020830191508360208260051b85010111156110a657600080fd5b60008083601f8401126117b357600080fd5b50813567ffffffffffffffff8111156117cb57600080fd5b6020830191508360208285010111156110a657600080fd5b6000604082840312156116d157600080fd5b60008060008060008060008060008060c08b8d03121561181457600080fd5b61181d8b611751565b995060208b013567ffffffffffffffff8082111561183a57600080fd5b6118468e838f0161175c565b909b50995060408d013591508082111561185f57600080fd5b61186b8e838f016117a1565b909950975060608d013591508082111561188457600080fd5b6118908e838f016117a1565b909750955060808d01359150808211156118a957600080fd5b6118b58e838f016117e3565b945060a08d01359150808211156118cb57600080fd5b506118d88d828e016117a1565b915080935050809150509295989b9194979a5092959850565b6000806000806000806060878903121561190a57600080fd5b863567ffffffffffffffff8082111561192257600080fd5b61192e8a838b016117a1565b9098509650602089013591508082111561194757600080fd5b6119538a838b016117a1565b9096509450604089013591508082111561196c57600080fd5b5061197989828a016117a1565b979a9699509497509295939492505050565b67ffffffffffffffff8116811461174e57600080fd5b600080600080608085870312156119b757600080fd5b6119c0856116d7565b9350602085013567ffffffffffffffff808211156119dd57600080fd5b6119e9888389016115c8565b945060408701359150808211156119ff57600080fd5b50611a0c878288016115c8565b9250506060850135611a1d8161198b565b939692955090935050565b600080600060608486031215611a3d57600080fd5b833567ffffffffffffffff80821115611a5557600080fd5b611a61878388016115c8565b94506020860135915080821115611a7757600080fd5b50611a84868287016115c8565b925050611a93604085016116d7565b90509250925092565b60008060408385031215611aaf57600080fd5b611ab8836116d7565b9150602083013567ffffffffffffffff811115611ad457600080fd5b611ae0858286016115c8565b9150509250929050565b60008060008060008060008060008060008060e08d8f031215611b0c57600080fd5b611b158d611751565b9b5067ffffffffffffffff60208e01351115611b3057600080fd5b611b408e60208f01358f0161175c565b909b50995067ffffffffffffffff60408e01351115611b5e57600080fd5b611b6e8e60408f01358f016117a1565b909950975067ffffffffffffffff60608e01351115611b8c57600080fd5b611b9c8e60608f01358f016117a1565b909750955067ffffffffffffffff60808e01351115611bba57600080fd5b611bca8e60808f01358f016117e3565b945067ffffffffffffffff60a08e01351115611be557600080fd5b611bf58e60a08f01358f016117a1565b909450925067ffffffffffffffff60c08e01351115611c1357600080fd5b611c238e60c08f01358f016117a1565b81935080925050509295989b509295989b509295989b565b60008060008060408587031215611c5157600080fd5b843567ffffffffffffffff80821115611c6957600080fd5b611c75888389016117a1565b90965094506020870135915080821115611c8e57600080fd5b50611c9b878288016117a1565b95989497509550505050565b60008060008060608587031215611cbd57600080fd5b843567ffffffffffffffff80821115611cd557600080fd5b611ce1888389016116be565b95506020870135915080821115611cf757600080fd5b50611d04878288016117a1565b9094509250611d179050604086016116d7565b905092959194509250565b600181811c90821680611d3657607f821691505b602082108114156116d157634e487b7160e01b600052602260045260246000fd5b6000808335601e19843603018112611d6e57600080fd5b83018035915067ffffffffffffffff821115611d8957600080fd5b6020019150368190038213156110a657600080fd5b6001600160a01b038316815260406020820152600061135d604083018461167f565b60008251611dd2818460208701611653565b9190910192915050565b606081526000611def606083018661167f565b8281036020840152611e01818661167f565b9150506001600160a01b0383166040830152949350505050565b7f4930784900000000000000000000000000000000000000000000000000000000815260008251611e53816004850160208701611653565b9190910160040192915050565b634e487b7160e01b600052601160045260246000fd5b60008219821115611e8957611e89611e60565b500190565b634e487b7160e01b600052603260045260246000fd5b8054600090600181811c9080831680611ebe57607f831692505b6020808410821415611ee057634e487b7160e01b600052602260045260246000fd5b83885260208801828015611efb5760018114611f0c57611f37565b60ff19871682528282019750611f37565b60008981526020902060005b87811015611f3157815484820152908601908401611f18565b83019850505b5050505050505092915050565b608081526000611f576080830187611ea4565b8281036020840152611f698187611ea4565b905067ffffffffffffffff8516604084015282810360608401526113b0818561167f565b604081526000611fa0604083018561167f565b8281036020840152611fb2818561167f565b95945050505050565b8051600581106116ee57600080fd5b80516116ee81611741565b600082601f830112611fe657600080fd5b8151611ff46115e7826115a0565b81815284602083860101111561200957600080fd5b61135d826020830160208701611653565b60006040828403121561202c57600080fd5b6040516040810167ffffffffffffffff828210818311171561205057612050611530565b81604052829350845191508082111561206857600080fd5b61207486838701611fd5565b8352602085015191508082111561208a57600080fd5b5061209785828601611fd5565b6020830152505092915050565b600082601f8301126120b557600080fd5b8151602067ffffffffffffffff808311156120d2576120d2611530565b8260051b6120e183820161156f565b93845285810183019383810190888611156120fb57600080fd5b84880192505b85831015612137578251848111156121195760008081fd5b6121278a87838c0101611fd5565b8352509184019190840190612101565b98975050505050505050565b805180151581146116ee57600080fd5b6000806040838503121561216657600080fd5b825167ffffffffffffffff8082111561217e57600080fd5b9084019060a0828703121561219257600080fd5b61219a611546565b6121a383611fbb565b81526121b160208401611fca565b60208201526040830151828111156121c857600080fd5b6121d48882860161201a565b6040830152506060830151828111156121ec57600080fd5b6121f8888286016120a4565b60608301525060808301518281111561221057600080fd5b61221c88828601611fd5565b608083015250935061173891505060208401612143565b60006020828403121561224557600080fd5b8151610e3c8161198b565b6020815261226b60208201835167ffffffffffffffff169052565b6000602083015161012080604085015261228961014085018361167f565b91506040850151601f19808685030160608701526122a7848361167f565b935060608701519150808685030160808701526122c4848361167f565b935060808701519150808685030160a08701526122e1848361167f565b935060a08701519150808685030160c0870152506122ff838261167f565b92505060c085015161232b60e0860182805167ffffffffffffffff908116835260209182015116910152565b5060e085015167ffffffffffffffff8116858301525090949350505050565b634e487b7160e01b600052602160045260246000fd5b60008261237d57634e487b7160e01b600052601260045260246000fd5b500490565b60008282101561239457612394611e60565b500390565b634e487b7160e01b600052600160045260246000fd5b600181815b808511156123ea5781600019048211156123d0576123d0611e60565b808516156123dd57918102915b93841c93908002906123b4565b509250929050565b6000826124015750600161037a565b8161240e5750600061037a565b8160018114612424576002811461242e5761244a565b600191505061037a565b60ff84111561243f5761243f611e60565b50506001821b61037a565b5060208310610133831016604e8410600b841016171561246d575081810a61037a565b61247783836123af565b806000190482111561248b5761248b611e60565b029392505050565b6000610e3c83836123f256fea2646970667358221220ca96d9750532957f6b125a78f8ce2239ed3fd8428e4e1403b632da3bc34acaae64736f6c634300080c00336633373765336438643733336465343265633030363937363663633866313062316335623062396461303332393865656131336231393661636136623939653465386135323831363733366637396539666434656464373030343763353962316632643531346262333735656161363735666561633164643235613630333364",
  "immutableReferences": {},
  "source": "// SPDX-License-Identifier: Apache-2.0\npragma solidity ^0.8.12;\n\nimport \"@hyperledger-labs/yui-ibc-solidity/contracts/core/OwnableIBCHandler.sol\";\nimport \"solidity-bytes-utils/contracts/BytesLib.sol\";\nimport \"../lib/PacketMssg.sol\";\n\n//noivern\ncontract SCVolcado is IIBCModule {\n    IBCHandler ibcHandler;\n\n    using BytesLib for *;\n\n    address private owner;\n\n    address receiverVolcado;\n    string sourcePort;\n    string sourceChannel;\n    uint64 timeoutHeight;\n\n    //mapping the issuers validos en el modelo, address -> nombre de la entidad issuer\n    mapping(address => string) private valid_issuers;\n\n    //mapping codigo del certificado - holder\n    mapping(string => address) private holders;\n    //mapping codigo - superhash\n    mapping(bytes => string) public certificate;\n\n    constructor(IBCHandler ibcHandler_) public {\n        owner = msg.sender;\n\n        ibcHandler = ibcHandler_;\n\n        //alice es holder de cert1 Cheddar\n        holders[\n            \"f377e3d8d733de42ec0069766cc8f10b1c5b0b9da03298eea13b196aca6b99e4\"\n        ] = 0xcBED645B1C1a6254f1149Df51d3591c6B3803007;\n\n        //alice es holder de cert2 Glasha\n        holders[\n            \"e8a52816736f79e9fd4edd70047c59b1f2d514bb375eaa675feac1dd25a6033d\"\n        ] = 0xcBED645B1C1a6254f1149Df51d3591c6B3803007;\n\n        //////////////////////////////////////////////////////////////////////////////////////////////\n\n        //clave 1.1 - certificado Cheddar\n        certificate[\n            \"0xf73910ddb3e35a2db69926e7d422df45a52751d09bc99ceaed08ed2dd497930e\"\n        ] = \"f377e3d8d733de42ec0069766cc8f10b1c5b0b9da03298eea13b196aca6b99e4\";\n\n        //clave 1.2 - certificado Glasha\n        certificate[\n            \"0x66de0b546355b8dc6b244662365b8f75b20bddb2341fbd313a8492556d78c11e\"\n        ] = \"e8a52816736f79e9fd4edd70047c59b1f2d514bb375eaa675feac1dd25a6033d\";\n    }\n\n    event AddIssuer(address issuerAddy, string issuerName);\n    event AddCertificate(string certificate, address indexed holder);\n    event Mint(address indexed to, string message);\n\n    event Gavincall(address indexed to, bytes message);\n\n    event Transfer(address indexed from, address indexed to, string message);\n\n    event SendTransfer(\n        address indexed from,\n        address indexed to,\n        string sourcePort,\n        string sourceChannel,\n        uint64 timeoutHeight,\n        string message\n    );\n\n    event Error(string error);\n\n    modifier onlyOwner() {\n        require(msg.sender == owner, \"MiniMessage: caller is not the owner\");\n        _;\n    }\n\n    modifier onlyIBC() {\n        require(\n            msg.sender == address(ibcHandler),\n            \"MiniMessage: caller is not the ibcHandler\"\n        );\n        _;\n    }\n\n    // Primero se han de establecer los parametros de la comunicacion.\n    // _receiverVolcado es la direccion del contrato en la otra cadena que recibe los datos.\n    // _sourcePort, _sourceChannel y _timeoutHeight son los datos de creacion del canal de comunicacion.\n    ////\n    function setCommParams(\n        address _receiverVolcado,\n        string memory _sourcePort,\n        string memory _sourceChannel,\n        uint64 _timeoutHeight\n    ) external {\n        receiverVolcado = _receiverVolcado;\n        sourcePort = _sourcePort;\n        sourceChannel = _sourceChannel;\n        timeoutHeight = _timeoutHeight;\n    }\n\n    function addIssuer(address issuerAddy, string memory issuerName) external {\n        valid_issuers[issuerAddy] = issuerName;\n        emit AddIssuer(issuerAddy, issuerName);\n\n        string memory codeI0xI_IssuerName = string.concat(\"I0xI\", issuerName);\n        sendTransfer(\n            codeI0xI_IssuerName,\n            issuerAddy,\n            sourcePort,\n            sourceChannel,\n            timeoutHeight\n        );\n    }\n\n    // Se anade el hash salteado del cert, con su codigo correspondiente y a que usuario pertenece. Se envia\n    // el codigo y el hash salteado del certificado a la otra cadena mediante sendtransfer.\n    ////\n    function addCertificate(\n        string memory _certificate,\n        bytes memory _code,\n        address _holder\n    ) external {\n        certificate[_code] = _certificate;\n        holders[_certificate] = _holder;\n        emit AddCertificate(_certificate, _holder);\n        //msg.sender el BAF del issuer\n        string memory mensaje = string(\n            abi.encode(_certificate, _code, msg.sender)\n        );\n\n        sendTransfer(\n            mensaje,\n            _holder,\n            sourcePort,\n            sourceChannel,\n            timeoutHeight\n        );\n    }\n\n    //\n    function sendTransfer(\n        string memory message,\n        address receiver,\n        string storage sourcePort,\n        string storage sourceChannel,\n        uint64 timeoutHeight\n    ) internal {\n        _sendPacket(\n            MiniMessagePacketData.Data({\n                message: message,\n                sender: abi.encodePacked(msg.sender),\n                receiver: abi.encodePacked(receiver)\n            }),\n            sourcePort,\n            sourceChannel,\n            timeoutHeight\n        );\n        emit SendTransfer(\n            msg.sender,\n            receiver,\n            sourcePort,\n            sourceChannel,\n            timeoutHeight,\n            message\n        );\n    }\n\n    //recepcion de paquete\n\n    function onRecvPacket(\n        Packet.Data calldata packet,\n        address relayer\n    ) external virtual override onlyIBC returns (bytes memory acknowledgement) {\n        MiniMessagePacketData.Data memory data = MiniMessagePacketData.decode(\n            packet.data\n        );\n        //(address sendercontrato, string memory mensajillo) = abi.decode(data.message, (address, string));\n        bytes memory message_s = abi.encode(\n            data.receiver.toAddress(0),\n            data.message\n        ); //aqui mandaria mensajillo en vez de data.message\n\n        bool respuesta = true;\n\n        return (_newAcknowledgement(respuesta));\n        //_newAcknowledgement(_gavincall(data.receiver.toAddress(0), data.message));\n    }\n\n    function onAcknowledgementPacket(\n        Packet.Data calldata packet,\n        bytes calldata acknowledgement,\n        address relayer\n    ) external virtual override onlyIBC {\n        if (!_isSuccessAcknowledgement(acknowledgement)) {\n            emit Error(\"ACK perdido\");\n        }\n    }\n\n    function onChanOpenInit(\n        Channel.Order,\n        string[] calldata connectionHops,\n        string calldata portId,\n        string calldata channelId,\n        ChannelCounterparty.Data calldata counterparty,\n        string calldata version\n    ) external virtual override {}\n\n    function onChanOpenTry(\n        Channel.Order,\n        string[] calldata connectionHops,\n        string calldata portId,\n        string calldata channelId,\n        ChannelCounterparty.Data calldata counterparty,\n        string calldata version,\n        string calldata counterpartyVersion\n    ) external virtual override {}\n\n    function onChanOpenAck(\n        string calldata portId,\n        string calldata channelId,\n        string calldata counterpartyVersion\n    ) external virtual override {}\n\n    function onChanOpenConfirm(\n        string calldata portId,\n        string calldata channelId\n    ) external virtual override {}\n\n    function onChanCloseConfirm(\n        string calldata portId,\n        string calldata channelId\n    ) external virtual override {}\n\n    function onChanCloseInit(\n        string calldata portId,\n        string calldata channelId\n    ) external virtual override {}\n\n    // Internal Functions //\n\n    //Envia un paquete de datos (creado con la libreria PacketMssg)\n    //por el canal especificado hasta la Blockchain B.\n    //El enpaquetado se hace en bytes, la libreria ya la modificamos en el\n    //\"paso anterior\" de int a string para que cuente los saltos a dar para\n    //desenpaquetar correctamente. Es Packetmssg.sol, en ../lib\n\n    function _sendPacket(\n        MiniMessagePacketData.Data memory data,\n        string memory sourcePort,\n        string memory sourceChannel,\n        uint64 timeoutHeight\n    ) internal virtual {\n        (Channel.Data memory channel, bool found) = ibcHandler.getChannel(\n            sourcePort,\n            sourceChannel\n        );\n        require(found, \"MiniMessage: channel not found\");\n        ibcHandler.sendPacket(\n            Packet.Data({\n                sequence: ibcHandler.getNextSequenceSend(\n                    sourcePort,\n                    sourceChannel\n                ),\n                source_port: sourcePort,\n                source_channel: sourceChannel,\n                destination_port: channel.counterparty.port_id,\n                destination_channel: channel.counterparty.channel_id,\n                data: MiniMessagePacketData.encode(data),\n                timeout_height: Height.Data({\n                    revision_number: 0,\n                    revision_height: timeoutHeight\n                }),\n                timeout_timestamp: 0\n            })\n        );\n    }\n\n    function _newAcknowledgement(\n        bool success\n    ) internal pure virtual returns (bytes memory) {\n        bytes memory acknowledgement = new bytes(1);\n        if (success) {\n            acknowledgement[0] = 0x01;\n        } else {\n            acknowledgement[0] = 0x00;\n        }\n        return acknowledgement;\n    }\n\n    function _isSuccessAcknowledgement(\n        bytes memory acknowledgement\n    ) internal pure virtual returns (bool) {\n        require(acknowledgement.length == 1);\n        return acknowledgement[0] == 0x01;\n    }\n}\n",
  "sourcePath": "/Volumes/C3P0/Trabajo/UniVigo/AzureDeploys/RelayerDataUni/UtilsConfigs/contracts/uni/contracts/app/SCVolcado.sol",
  "compiler": {
    "name": "solc",
    "version": "0.8.12+commit.f00d7308.Emscripten.clang"
  },
  "schemaVersion": "3.4.10",
  "updatedAt": "2025-05-20T14:08:46.582Z",
  "devdoc": {
    "kind": "dev",
    "methods": {},
    "version": 1
  },
  "userdoc": {
    "kind": "user",
    "methods": {},
    "version": 1
  }
}