{
  "_format": "hh-sol-artifact-1",
  "contractName": "SCAuthAccess",
  "sourceName": "contracts/SCAuthAccess.sol",
  "abi": [
    {
      "inputs": [],
      "stateMutability": "nonpayable",
      "type": "constructor"
    },
    {
      "anonymous": false,
      "inputs": [
        {
          "indexed": true,
          "internalType": "address",
          "name": "user",
          "type": "address"
        },
        {
          "indexed": false,
          "internalType": "string[]",
          "name": "certificateIDs",
          "type": "string[]"
        }
      ],
      "name": "GotAllCertificateID",
      "type": "event"
    },
    {
      "anonymous": false,
      "inputs": [
        {
          "indexed": true,
          "internalType": "address",
          "name": "user",
          "type": "address"
        },
        {
          "indexed": false,
          "internalType": "string",
          "name": "certificateIDs",
          "type": "string"
        },
        {
          "indexed": false,
          "internalType": "string",
          "name": "codeID",
          "type": "string"
        }
      ],
      "name": "GotCertificateID",
      "type": "event"
    },
    {
      "anonymous": false,
      "inputs": [
        {
          "indexed": true,
          "internalType": "address",
          "name": "user",
          "type": "address"
        },
        {
          "indexed": false,
          "internalType": "uint256",
          "name": "nonce",
          "type": "uint256"
        }
      ],
      "name": "NonceInitalized",
      "type": "event"
    },
    {
      "anonymous": false,
      "inputs": [
        {
          "indexed": false,
          "internalType": "address",
          "name": "scaccess",
          "type": "address"
        }
      ],
      "name": "SCAccessAdd",
      "type": "event"
    },
    {
      "inputs": [
        {
          "internalType": "string",
          "name": "",
          "type": "string"
        }
      ],
      "name": "coderegid",
      "outputs": [
        {
          "internalType": "string",
          "name": "",
          "type": "string"
        }
      ],
      "stateMutability": "view",
      "type": "function"
    },
    {
      "inputs": [
        {
          "internalType": "address",
          "name": "holder",
          "type": "address"
        },
        {
          "components": [
            {
              "internalType": "bytes32",
              "name": "_hashCodeCert",
              "type": "bytes32"
            },
            {
              "internalType": "bytes32",
              "name": "_r",
              "type": "bytes32"
            },
            {
              "internalType": "bytes32",
              "name": "_s",
              "type": "bytes32"
            },
            {
              "internalType": "uint8",
              "name": "_v",
              "type": "uint8"
            }
          ],
          "internalType": "struct SCAuthAccess.FirmaValidacion",
          "name": "firma",
          "type": "tuple"
        }
      ],
      "name": "getAllCertificateID",
      "outputs": [
        {
          "internalType": "string[]",
          "name": "",
          "type": "string[]"
        }
      ],
      "stateMutability": "nonpayable",
      "type": "function"
    },
    {
      "inputs": [
        {
          "internalType": "address",
          "name": "holder",
          "type": "address"
        },
        {
          "internalType": "string",
          "name": "code",
          "type": "string"
        },
        {
          "components": [
            {
              "internalType": "bytes32",
              "name": "_hashCodeCert",
              "type": "bytes32"
            },
            {
              "internalType": "bytes32",
              "name": "_r",
              "type": "bytes32"
            },
            {
              "internalType": "bytes32",
              "name": "_s",
              "type": "bytes32"
            },
            {
              "internalType": "uint8",
              "name": "_v",
              "type": "uint8"
            }
          ],
          "internalType": "struct SCAuthAccess.FirmaValidacion",
          "name": "firma",
          "type": "tuple"
        }
      ],
      "name": "getCertificateID",
      "outputs": [
        {
          "internalType": "string",
          "name": "",
          "type": "string"
        }
      ],
      "stateMutability": "nonpayable",
      "type": "function"
    },
    {
      "inputs": [
        {
          "internalType": "address",
          "name": "holder",
          "type": "address"
        }
      ],
      "name": "getNonce",
      "outputs": [
        {
          "internalType": "uint256",
          "name": "",
          "type": "uint256"
        }
      ],
      "stateMutability": "nonpayable",
      "type": "function"
    },
    {
      "inputs": [],
      "name": "getSCAccess",
      "outputs": [
        {
          "internalType": "address",
          "name": "",
          "type": "address"
        }
      ],
      "stateMutability": "nonpayable",
      "type": "function"
    },
    {
      "inputs": [
        {
          "internalType": "address",
          "name": "",
          "type": "address"
        },
        {
          "internalType": "uint256",
          "name": "",
          "type": "uint256"
        }
      ],
      "name": "holdersEspejoID",
      "outputs": [
        {
          "internalType": "string",
          "name": "",
          "type": "string"
        }
      ],
      "stateMutability": "view",
      "type": "function"
    },
    {
      "inputs": [
        {
          "internalType": "string",
          "name": "",
          "type": "string"
        }
      ],
      "name": "holdersID",
      "outputs": [
        {
          "internalType": "address",
          "name": "",
          "type": "address"
        }
      ],
      "stateMutability": "view",
      "type": "function"
    },
    {
      "inputs": [
        {
          "internalType": "string",
          "name": "id",
          "type": "string"
        },
        {
          "internalType": "string",
          "name": "code",
          "type": "string"
        },
        {
          "internalType": "address",
          "name": "holder",
          "type": "address"
        },
        {
          "components": [
            {
              "internalType": "bytes32",
              "name": "_hashCodeCert",
              "type": "bytes32"
            },
            {
              "internalType": "bytes32",
              "name": "_r",
              "type": "bytes32"
            },
            {
              "internalType": "bytes32",
              "name": "_s",
              "type": "bytes32"
            },
            {
              "internalType": "uint8",
              "name": "_v",
              "type": "uint8"
            }
          ],
          "internalType": "struct SCAuthAccess.FirmaValidacion",
          "name": "firma",
          "type": "tuple"
        }
      ],
      "name": "setCertificateID",
      "outputs": [
        {
          "internalType": "bool",
          "name": "",
          "type": "bool"
        }
      ],
      "stateMutability": "nonpayable",
      "type": "function"
    },
    {
      "inputs": [],
      "name": "speak",
      "outputs": [
        {
          "internalType": "string",
          "name": "",
          "type": "string"
        }
      ],
      "stateMutability": "view",
      "type": "function"
    },
    {
      "inputs": [
        {
          "internalType": "address",
          "name": "_scaccess",
          "type": "address"
        }
      ],
      "name": "updateSCAccess",
      "outputs": [
        {
          "internalType": "address",
          "name": "",
          "type": "address"
        }
      ],
      "stateMutability": "nonpayable",
      "type": "function"
    }
  ],
  "bytecode": "0x608060405234801561001057600080fd5b50735b38da6a701c568545dcfcb03fcb875f56beddc460016040516100349061036c565b908152602001604051809103902060006101000a81548173ffffffffffffffffffffffffffffffffffffffff021916908373ffffffffffffffffffffffffffffffffffffffff160217905550735b38da6a701c568545dcfcb03fcb875f56beddc460016040516100a390610419565b908152602001604051809103902060006101000a81548173ffffffffffffffffffffffffffffffffffffffff021916908373ffffffffffffffffffffffffffffffffffffffff1602179055506040518060400160405280604051806080016040528060428152602001612cba604291398152602001604051806080016040528060428152602001612cfc6042913981525060026000735b38da6a701c568545dcfcb03fcb875f56beddc473ffffffffffffffffffffffffffffffffffffffff1673ffffffffffffffffffffffffffffffffffffffff1681526020019081526020016000209060026101959291906101ef565b5073e7f1725e7734ce288f8367e1bb143e90bb3f05126000806101000a81548173ffffffffffffffffffffffffffffffffffffffff021916908373ffffffffffffffffffffffffffffffffffffffff160217905550610750565b828054828255906000526020600020908101928215610237579160200282015b82811115610236578251829081610226919061067e565b509160200191906001019061020f565b5b5090506102449190610248565b5090565b5b80821115610268576000818161025f919061026c565b50600101610249565b5090565b50805461027890610497565b6000825580601f1061028a57506102a9565b601f0160209004906000526020600020908101906102a891906102ac565b5b50565b5b808211156102c55760008160009055506001016102ad565b5090565b600081905092915050565b7f307866373339313064646233653335613264623639393236653764343232646660008201527f343561353237353164303962633939636561656430386564326464343937393360208201527f3065000000000000000000000000000000000000000000000000000000000000604082015250565b60006103566042836102c9565b9150610361826102d4565b604282019050919050565b600061037782610349565b9150819050919050565b7f307836366465306235343633353562386463366232343436363233363562386660008201527f373562323062646462323334316662643331336138343932353536643738633160208201527f3165000000000000000000000000000000000000000000000000000000000000604082015250565b60006104036042836102c9565b915061040e82610381565b604282019050919050565b6000610424826103f6565b9150819050919050565b600081519050919050565b7f4e487b7100000000000000000000000000000000000000000000000000000000600052604160045260246000fd5b7f4e487b7100000000000000000000000000000000000000000000000000000000600052602260045260246000fd5b600060028204905060018216806104af57607f821691505b6020821081036104c2576104c1610468565b5b50919050565b60008190508160005260206000209050919050565b60006020601f8301049050919050565b600082821b905092915050565b60006008830261052a7fffffffffffffffffffffffffffffffffffffffffffffffffffffffffffffffff826104ed565b61053486836104ed565b95508019841693508086168417925050509392505050565b6000819050919050565b6000819050919050565b600061057b6105766105718461054c565b610556565b61054c565b9050919050565b6000819050919050565b61059583610560565b6105a96105a182610582565b8484546104fa565b825550505050565b600090565b6105be6105b1565b6105c981848461058c565b505050565b5b818110156105ed576105e26000826105b6565b6001810190506105cf565b5050565b601f82111561063257610603816104c8565b61060c846104dd565b8101602085101561061b578190505b61062f610627856104dd565b8301826105ce565b50505b505050565b600082821c905092915050565b600061065560001984600802610637565b1980831691505092915050565b600061066e8383610644565b9150826002028217905092915050565b6106878261042e565b67ffffffffffffffff8111156106a05761069f610439565b5b6106aa8254610497565b6106b58282856105f1565b600060209050601f8311600181146106e857600084156106d6578287015190505b6106e08582610662565b865550610748565b601f1984166106f6866104c8565b60005b8281101561071e578489015182556001820191506020850194506020810190506106f9565b8683101561073b5784890151610737601f891682610644565b8355505b6001600288020188555050505b505050505050565b61255b8061075f6000396000f3fe608060405234801561001057600080fd5b506004361061009e5760003560e01c806359c68e181161006657806359c68e18146101815780635dc451f4146101b1578063645ff61a146101e1578063941fcc08146101ff578063dc1585d71461022f5761009e565b8063158a57a2146100a35780632438c0fe146100d35780632d0335ab1461010357806350d8531514610133578063547f95cd14610151575b600080fd5b6100bd60048036038101906100b891906115f1565b61025f565b6040516100ca91906116b9565b60405180910390f35b6100ed60048036038101906100e89190611825565b610315565b6040516100fa91906118df565b60405180910390f35b61011d600480360381019061011891906118fa565b610769565b60405161012a9190611940565b60405180910390f35b61013b610918565b60405161014891906116b9565b60405180910390f35b61016b6004803603810190610166919061197f565b610955565b60405161017891906116b9565b60405180910390f35b61019b600480360381019061019691906115f1565b610c42565b6040516101a891906119fd565b60405180910390f35b6101cb60048036038101906101c691906118fa565b610c8b565b6040516101d891906119fd565b60405180910390f35b6101e9610cf5565b6040516101f691906119fd565b60405180910390f35b61021960048036038101906102149190611a18565b610d74565b6040516102269190611b64565b60405180910390f35b61024960048036038101906102449190611bb2565b6110e7565b60405161025691906116b9565b60405180910390f35b600481805160208101820180518482526020830160208501208183528095505050505050600091509050805461029490611c21565b80601f01602080910402602001604051908101604052809291908181526020018280546102c090611c21565b801561030d5780601f106102e25761010080835404028352916020019161030d565b820191906000526020600020905b8154815290600101906020018083116102f057829003601f168201915b505050505081565b600080610321836111a0565b905061036b600360008373ffffffffffffffffffffffffffffffffffffffff1673ffffffffffffffffffffffffffffffffffffffff16815260200190815260200160002054611276565b60405160200161037b9190611c8e565b604051602081830303815290604052805190602001208360000151146103d6576040517f08c379a00000000000000000000000000000000000000000000000000000000081526004016103cd90611cf1565b60405180910390fd5b8073ffffffffffffffffffffffffffffffffffffffff163373ffffffffffffffffffffffffffffffffffffffff1614610444576040517f08c379a000000000000000000000000000000000000000000000000000000000815260040161043b90611d83565b60405180910390fd5b6001600360008373ffffffffffffffffffffffffffffffffffffffff1673ffffffffffffffffffffffffffffffffffffffff168152602001908152602001600020546104909190611dd2565b600360008373ffffffffffffffffffffffffffffffffffffffff1673ffffffffffffffffffffffffffffffffffffffff1681526020019081526020016000208190555060008060008054906101000a900473ffffffffffffffffffffffffffffffffffffffff1673ffffffffffffffffffffffffffffffffffffffff163360405160240161051e91906119fd565b6040516020818303038152906040527ffef03da3000000000000000000000000000000000000000000000000000000007bffffffffffffffffffffffffffffffffffffffffffffffffffffffff19166020820180517bffffffffffffffffffffffffffffffffffffffffffffffffffffffff83818316178352505050506040516105a89190611e4d565b6000604051808303816000865af19150503d80600081146105e5576040519150601f19603f3d011682016040523d82523d6000602084013e6105ea565b606091505b50915091508161062f576040517f08c379a000000000000000000000000000000000000000000000000000000000815260040161062690611eb0565b60405180910390fd5b6000818060200190518101906106459190611f40565b9050600081511461075857886004896040516106619190611c8e565b9081526020016040518091039020908161067b9190612135565b508660018a60405161068d9190611c8e565b908152602001604051809103902060006101000a81548173ffffffffffffffffffffffffffffffffffffffff021916908373ffffffffffffffffffffffffffffffffffffffff160217905550600260008873ffffffffffffffffffffffffffffffffffffffff1673ffffffffffffffffffffffffffffffffffffffff1681526020019081526020016000208990806001815401808255809150506001900390600052602060002001600090919091909150908161074a9190612135565b506001945050505050610761565b60009450505050505b949350505050565b6000806000600360008573ffffffffffffffffffffffffffffffffffffffff1673ffffffffffffffffffffffffffffffffffffffff16815260200190815260200160002054146107fa57600360008473ffffffffffffffffffffffffffffffffffffffff1673ffffffffffffffffffffffffffffffffffffffff168152602001908152602001600020549050610883565b6103e8600360008573ffffffffffffffffffffffffffffffffffffffff1673ffffffffffffffffffffffffffffffffffffffff16815260200190815260200160002081905550600360008473ffffffffffffffffffffffffffffffffffffffff1673ffffffffffffffffffffffffffffffffffffffff1681526020019081526020016000205490505b8273ffffffffffffffffffffffffffffffffffffffff167ead37d4a55f8bad74b47121219cae485ffbfc0e84e68db11ec519e213855006600360008673ffffffffffffffffffffffffffffffffffffffff1673ffffffffffffffffffffffffffffffffffffffff168152602001908152602001600020546040516109079190611940565b60405180910390a280915050919050565b60606040518060400160405280601281526020017f6361636e656120696e20646120686f7573650000000000000000000000000000815250905090565b606060006109728380360381019061096d9190612207565b6111a0565b90506109bc600360008373ffffffffffffffffffffffffffffffffffffffff1673ffffffffffffffffffffffffffffffffffffffff16815260200190815260200160002054611276565b6040516020016109cc9190611c8e565b60405160208183030381529060405280519060200120836000013514610a27576040517f08c379a0000000000000000000000000000000000000000000000000000000008152600401610a1e90611cf1565b60405180910390fd5b8073ffffffffffffffffffffffffffffffffffffffff168573ffffffffffffffffffffffffffffffffffffffff1614610a95576040517f08c379a0000000000000000000000000000000000000000000000000000000008152600401610a8c90611d83565b60405180910390fd5b6001600360008373ffffffffffffffffffffffffffffffffffffffff1673ffffffffffffffffffffffffffffffffffffffff16815260200190815260200160002054610ae19190611dd2565b600360008373ffffffffffffffffffffffffffffffffffffffff1673ffffffffffffffffffffffffffffffffffffffff168152602001908152602001600020819055503373ffffffffffffffffffffffffffffffffffffffff167fb09bacfc12f47ce642f068d6631a363443571ca781b06af672d23942da98e1f8600486604051610b6c9190611c8e565b908152602001604051809103902086604051610b899291906122b8565b60405180910390a2600484604051610ba19190611c8e565b90815260200160405180910390208054610bba90611c21565b80601f0160208091040260200160405190810160405280929190818152602001828054610be690611c21565b8015610c335780601f10610c0857610100808354040283529160200191610c33565b820191906000526020600020905b815481529060010190602001808311610c1657829003601f168201915b50505050509150509392505050565b6001818051602081018201805184825260208301602085012081835280955050505050506000915054906101000a900473ffffffffffffffffffffffffffffffffffffffff1681565b6000816000806101000a81548173ffffffffffffffffffffffffffffffffffffffff021916908373ffffffffffffffffffffffffffffffffffffffff16021790555060008054906101000a900473ffffffffffffffffffffffffffffffffffffffff169050919050565b60007f0a0a24ffa1fa72a19ff8c28e5669d9345e9c276661fd4ad535dfa8c45e39e41760008054906101000a900473ffffffffffffffffffffffffffffffffffffffff16604051610d4691906119fd565b60405180910390a160008054906101000a900473ffffffffffffffffffffffffffffffffffffffff16905090565b60606000610d9183803603810190610d8c9190612207565b6111a0565b9050610ddb600360008373ffffffffffffffffffffffffffffffffffffffff1673ffffffffffffffffffffffffffffffffffffffff16815260200190815260200160002054611276565b604051602001610deb9190611c8e565b60405160208183030381529060405280519060200120836000013514610e46576040517f08c379a0000000000000000000000000000000000000000000000000000000008152600401610e3d90611cf1565b60405180910390fd5b8073ffffffffffffffffffffffffffffffffffffffff168473ffffffffffffffffffffffffffffffffffffffff1614610eb4576040517f08c379a0000000000000000000000000000000000000000000000000000000008152600401610eab90611d83565b60405180910390fd5b6001600360008373ffffffffffffffffffffffffffffffffffffffff1673ffffffffffffffffffffffffffffffffffffffff16815260200190815260200160002054610f009190611dd2565b600360008373ffffffffffffffffffffffffffffffffffffffff1673ffffffffffffffffffffffffffffffffffffffff168152602001908152602001600020819055503373ffffffffffffffffffffffffffffffffffffffff167f82ba0297872e5f0b5872861f0847252aeca494605c65956111245a0a359ccf6c600260003373ffffffffffffffffffffffffffffffffffffffff1673ffffffffffffffffffffffffffffffffffffffff168152602001908152602001600020604051610fc79190612428565b60405180910390a2600260003373ffffffffffffffffffffffffffffffffffffffff1673ffffffffffffffffffffffffffffffffffffffff168152602001908152602001600020805480602002602001604051908101604052809291908181526020016000905b828210156110da57838290600052602060002001805461104d90611c21565b80601f016020809104026020016040519081016040528092919081815260200182805461107990611c21565b80156110c65780601f1061109b576101008083540402835291602001916110c6565b820191906000526020600020905b8154815290600101906020018083116110a957829003601f168201915b50505050508152602001906001019061102e565b5050505091505092915050565b6002602052816000526040600020818154811061110357600080fd5b9060005260206000200160009150915050805461111f90611c21565b80601f016020809104026020016040519081016040528092919081815260200182805461114b90611c21565b80156111985780601f1061116d57610100808354040283529160200191611198565b820191906000526020600020905b81548152906001019060200180831161117b57829003601f168201915b505050505081565b6000806040518060400160405280601c81526020017f19457468657265756d205369676e6564204d6573736167653a0a333200000000815250905060008184600001516040516020016111f492919061246b565b60405160208183030381529060405280519060200120905060006001828660600151876020015188604001516040516000815260200160405260405161123d94939291906124b1565b6020604051602081039080840390855afa15801561125f573d6000803e3d6000fd5b505050602060405103519050809350505050919050565b60606000600161128584611344565b01905060008167ffffffffffffffff8111156112a4576112a36114c6565b5b6040519080825280601f01601f1916602001820160405280156112d65781602001600182028036833780820191505090505b509050600082602001820190505b600115611339578080600190039150507f3031323334353637383961626364656600000000000000000000000000000000600a86061a8153600a858161132d5761132c6124f6565b5b049450600085036112e4575b819350505050919050565b600080600090507a184f03e93ff9f4daa797ed6e38ed64bf6a1f01000000000000000083106113a2577a184f03e93ff9f4daa797ed6e38ed64bf6a1f0100000000000000008381611398576113976124f6565b5b0492506040810190505b6d04ee2d6d415b85acef810000000083106113df576d04ee2d6d415b85acef810000000083816113d5576113d46124f6565b5b0492506020810190505b662386f26fc10000831061140e57662386f26fc100008381611404576114036124f6565b5b0492506010810190505b6305f5e1008310611437576305f5e100838161142d5761142c6124f6565b5b0492506008810190505b612710831061145c576127108381611452576114516124f6565b5b0492506004810190505b6064831061147f5760648381611475576114746124f6565b5b0492506002810190505b600a831061148e576001810190505b80915050919050565b6000604051905090565b600080fd5b600080fd5b600080fd5b600080fd5b6000601f19601f8301169050919050565b7f4e487b7100000000000000000000000000000000000000000000000000000000600052604160045260246000fd5b6114fe826114b5565b810181811067ffffffffffffffff8211171561151d5761151c6114c6565b5b80604052505050565b6000611530611497565b905061153c82826114f5565b919050565b600067ffffffffffffffff82111561155c5761155b6114c6565b5b611565826114b5565b9050602081019050919050565b82818337600083830152505050565b600061159461158f84611541565b611526565b9050828152602081018484840111156115b0576115af6114b0565b5b6115bb848285611572565b509392505050565b600082601f8301126115d8576115d76114ab565b5b81356115e8848260208601611581565b91505092915050565b600060208284031215611607576116066114a1565b5b600082013567ffffffffffffffff811115611625576116246114a6565b5b611631848285016115c3565b91505092915050565b600081519050919050565b600082825260208201905092915050565b60005b83811015611674578082015181840152602081019050611659565b60008484015250505050565b600061168b8261163a565b6116958185611645565b93506116a5818560208601611656565b6116ae816114b5565b840191505092915050565b600060208201905081810360008301526116d38184611680565b905092915050565b600073ffffffffffffffffffffffffffffffffffffffff82169050919050565b6000611706826116db565b9050919050565b611716816116fb565b811461172157600080fd5b50565b6000813590506117338161170d565b92915050565b600080fd5b6000819050919050565b6117518161173e565b811461175c57600080fd5b50565b60008135905061176e81611748565b92915050565b600060ff82169050919050565b61178a81611774565b811461179557600080fd5b50565b6000813590506117a781611781565b92915050565b6000608082840312156117c3576117c2611739565b5b6117cd6080611526565b905060006117dd8482850161175f565b60008301525060206117f18482850161175f565b60208301525060406118058482850161175f565b604083015250606061181984828501611798565b60608301525092915050565b60008060008060e0858703121561183f5761183e6114a1565b5b600085013567ffffffffffffffff81111561185d5761185c6114a6565b5b611869878288016115c3565b945050602085013567ffffffffffffffff81111561188a576118896114a6565b5b611896878288016115c3565b93505060406118a787828801611724565b92505060606118b8878288016117ad565b91505092959194509250565b60008115159050919050565b6118d9816118c4565b82525050565b60006020820190506118f460008301846118d0565b92915050565b6000602082840312156119105761190f6114a1565b5b600061191e84828501611724565b91505092915050565b6000819050919050565b61193a81611927565b82525050565b60006020820190506119556000830184611931565b92915050565b600080fd5b6000608082840312156119765761197561195b565b5b81905092915050565b600080600060c08486031215611998576119976114a1565b5b60006119a686828701611724565b935050602084013567ffffffffffffffff8111156119c7576119c66114a6565b5b6119d3868287016115c3565b92505060406119e486828701611960565b9150509250925092565b6119f7816116fb565b82525050565b6000602082019050611a1260008301846119ee565b92915050565b60008060a08385031215611a2f57611a2e6114a1565b5b6000611a3d85828601611724565b9250506020611a4e85828601611960565b9150509250929050565b600081519050919050565b600082825260208201905092915050565b6000819050602082019050919050565b600082825260208201905092915050565b6000611aa08261163a565b611aaa8185611a84565b9350611aba818560208601611656565b611ac3816114b5565b840191505092915050565b6000611ada8383611a95565b905092915050565b6000602082019050919050565b6000611afa82611a58565b611b048185611a63565b935083602082028501611b1685611a74565b8060005b85811015611b525784840389528151611b338582611ace565b9450611b3e83611ae2565b925060208a01995050600181019050611b1a565b50829750879550505050505092915050565b60006020820190508181036000830152611b7e8184611aef565b905092915050565b611b8f81611927565b8114611b9a57600080fd5b50565b600081359050611bac81611b86565b92915050565b60008060408385031215611bc957611bc86114a1565b5b6000611bd785828601611724565b9250506020611be885828601611b9d565b9150509250929050565b7f4e487b7100000000000000000000000000000000000000000000000000000000600052602260045260246000fd5b60006002820490506001821680611c3957607f821691505b602082108103611c4c57611c4b611bf2565b5b50919050565b600081905092915050565b6000611c688261163a565b611c728185611c52565b9350611c82818560208601611656565b80840191505092915050565b6000611c9a8284611c5d565b915081905092915050565b7f496e76616c6964207369676e6572000000000000000000000000000000000000600082015250565b6000611cdb600e83611645565b9150611ce682611ca5565b602082019050919050565b60006020820190508181036000830152611d0a81611cce565b9050919050565b7f496e76616c6964207369676e65722e204d7367207369676e6572206973206e6f60008201527f74207468652075736572207265717565737465642e0000000000000000000000602082015250565b6000611d6d603583611645565b9150611d7882611d11565b604082019050919050565b60006020820190508181036000830152611d9c81611d60565b9050919050565b7f4e487b7100000000000000000000000000000000000000000000000000000000600052601160045260246000fd5b6000611ddd82611927565b9150611de883611927565b9250828201905080821115611e0057611dff611da3565b5b92915050565b600081519050919050565b600081905092915050565b6000611e2782611e06565b611e318185611e11565b9350611e41818560208601611656565b80840191505092915050565b6000611e598284611e1c565b915081905092915050565b7f43616c6c20746f205343416363657373206661696c6564000000000000000000600082015250565b6000611e9a601783611645565b9150611ea582611e64565b602082019050919050565b60006020820190508181036000830152611ec981611e8d565b9050919050565b6000611ee3611ede84611541565b611526565b905082815260208101848484011115611eff57611efe6114b0565b5b611f0a848285611656565b509392505050565b600082601f830112611f2757611f266114ab565b5b8151611f37848260208601611ed0565b91505092915050565b600060208284031215611f5657611f556114a1565b5b600082015167ffffffffffffffff811115611f7457611f736114a6565b5b611f8084828501611f12565b91505092915050565b60008190508160005260206000209050919050565b60006020601f8301049050919050565b600082821b905092915050565b600060088302611feb7fffffffffffffffffffffffffffffffffffffffffffffffffffffffffffffffff82611fae565b611ff58683611fae565b95508019841693508086168417925050509392505050565b6000819050919050565b600061203261202d61202884611927565b61200d565b611927565b9050919050565b6000819050919050565b61204c83612017565b61206061205882612039565b848454611fbb565b825550505050565b600090565b612075612068565b612080818484612043565b505050565b5b818110156120a45761209960008261206d565b600181019050612086565b5050565b601f8211156120e9576120ba81611f89565b6120c384611f9e565b810160208510156120d2578190505b6120e66120de85611f9e565b830182612085565b50505b505050565b600082821c905092915050565b600061210c600019846008026120ee565b1980831691505092915050565b600061212583836120fb565b9150826002028217905092915050565b61213e8261163a565b67ffffffffffffffff811115612157576121566114c6565b5b6121618254611c21565b61216c8282856120a8565b600060209050601f83116001811461219f576000841561218d578287015190505b6121978582612119565b8655506121ff565b601f1984166121ad86611f89565b60005b828110156121d5578489015182556001820191506020850194506020810190506121b0565b868310156121f257848901516121ee601f8916826120fb565b8355505b6001600288020188555050505b505050505050565b60006080828403121561221d5761221c6114a1565b5b600061222b848285016117ad565b91505092915050565b6000815461224181611c21565b61224b8186611645565b94506001821660008114612266576001811461227c576122af565b60ff1983168652811515602002860193506122af565b61228585611f89565b60005b838110156122a757815481890152600182019150602081019050612288565b808801955050505b50505092915050565b600060408201905081810360008301526122d28185612234565b905081810360208301526122e68184611680565b90509392505050565b600081549050919050565b60008190508160005260206000209050919050565b6000815461231c81611c21565b6123268186611a84565b9450600182166000811461234157600181146123575761238a565b60ff19831686528115156020028601935061238a565b61236085611f89565b60005b8381101561238257815481890152600182019150602081019050612363565b808801955050505b50505092915050565b600061239f838361230f565b905092915050565b6000600182019050919050565b60006123bf826122ef565b6123c98185611a63565b9350836020820285016123db856122fa565b8060005b85811015612416578484038952816123f78582612393565b9450612402836123a7565b925060208a019950506001810190506123df565b50829750879550505050505092915050565b6000602082019050818103600083015261244281846123b4565b905092915050565b6000819050919050565b6124656124608261173e565b61244a565b82525050565b60006124778285611e1c565b91506124838284612454565b6020820191508190509392505050565b61249c8161173e565b82525050565b6124ab81611774565b82525050565b60006080820190506124c66000830187612493565b6124d360208301866124a2565b6124e06040830185612493565b6124ed6060830184612493565b95945050505050565b7f4e487b7100000000000000000000000000000000000000000000000000000000600052601260045260246000fdfea2646970667358221220c732c87c2357f79f4394a6d3cf825c782dbb37e4552e49cc5769926806b1032f64736f6c634300081c0033307866373339313064646233653335613264623639393236653764343232646634356135323735316430396263393963656165643038656432646434393739333065307836366465306235343633353562386463366232343436363233363562386637356232306264646232333431666264333133613834393235353664373863313165",
  "linkReferences": {},
  "deployedLinkReferences": {}
}